{
  "address": "0x16E974D4c8E56588ff3dbAa797A9549E37d87043",
  "abi": [
    {
      "inputs": [
        {
          "internalType": "contract MACI",
          "name": "_maci",
          "type": "address"
        }
      ],
      "stateMutability": "nonpayable",
      "type": "constructor"
    },
    {
      "anonymous": false,
      "inputs": [
        {
          "indexed": true,
          "internalType": "address",
          "name": "previousOwner",
          "type": "address"
        },
        {
          "indexed": true,
          "internalType": "address",
          "name": "newOwner",
          "type": "address"
        }
      ],
      "name": "OwnershipTransferred",
      "type": "event"
    },
    {
      "inputs": [],
      "name": "MESSAGE_DATA_LENGTH",
      "outputs": [
        {
          "internalType": "uint8",
          "name": "",
          "type": "uint8"
        }
      ],
      "stateMutability": "view",
      "type": "function"
    },
    {
      "inputs": [],
      "name": "coordinatorPubKey",
      "outputs": [
        {
          "internalType": "uint256",
          "name": "x",
          "type": "uint256"
        },
        {
          "internalType": "uint256",
          "name": "y",
          "type": "uint256"
        }
      ],
      "stateMutability": "view",
      "type": "function"
    },
    {
      "inputs": [
        {
          "internalType": "string",
          "name": "_name",
          "type": "string"
        },
        {
          "internalType": "bytes",
          "name": "_options",
          "type": "bytes"
        },
        {
          "internalType": "string",
          "name": "_ipfsHash",
          "type": "string"
        },
        {
          "internalType": "uint256",
          "name": "numOfOptions",
          "type": "uint256"
        }
      ],
      "name": "createPoll",
      "outputs": [],
      "stateMutability": "payable",
      "type": "function"
    },
    {
      "inputs": [],
      "name": "duration",
      "outputs": [
        {
          "internalType": "uint256",
          "name": "",
          "type": "uint256"
        }
      ],
      "stateMutability": "view",
      "type": "function"
    },
    {
      "inputs": [],
      "name": "fees",
      "outputs": [
        {
          "internalType": "uint256",
          "name": "",
          "type": "uint256"
        }
      ],
      "stateMutability": "view",
      "type": "function"
    },
    {
      "inputs": [],
      "name": "maci",
      "outputs": [
        {
          "internalType": "contract MACI",
          "name": "",
          "type": "address"
        }
      ],
      "stateMutability": "view",
      "type": "function"
    },
    {
      "inputs": [],
      "name": "owner",
      "outputs": [
        {
          "internalType": "address",
          "name": "",
          "type": "address"
        }
      ],
      "stateMutability": "view",
      "type": "function"
    },
    {
      "inputs": [
        {
          "internalType": "uint256",
          "name": "",
          "type": "uint256"
        }
      ],
      "name": "polls",
      "outputs": [
        {
          "internalType": "string",
          "name": "name",
          "type": "string"
        },
        {
          "internalType": "bytes",
          "name": "options",
          "type": "bytes"
        },
        {
          "internalType": "string",
          "name": "ipfsHash",
          "type": "string"
        },
        {
          "internalType": "address",
          "name": "creator",
          "type": "address"
        },
        {
          "components": [
            {
              "internalType": "address",
              "name": "poll",
              "type": "address"
            },
            {
              "internalType": "address",
              "name": "messageProcessor",
              "type": "address"
            },
            {
              "internalType": "address",
              "name": "tally",
              "type": "address"
            },
            {
              "internalType": "address",
              "name": "subsidy",
              "type": "address"
            }
          ],
          "internalType": "struct PollManager.PollContracts",
          "name": "pollContracts",
          "type": "tuple"
        },
        {
          "internalType": "uint256",
          "name": "endTime",
          "type": "uint256"
        },
        {
          "internalType": "uint256",
          "name": "numOfOptions",
          "type": "uint256"
        }
      ],
      "stateMutability": "view",
      "type": "function"
    },
    {
      "inputs": [],
      "name": "renounceOwnership",
      "outputs": [],
      "stateMutability": "nonpayable",
      "type": "function"
    },
    {
      "inputs": [
        {
          "components": [
            {
              "internalType": "uint8",
              "name": "intStateTreeDepth",
              "type": "uint8"
            },
            {
              "internalType": "uint8",
              "name": "messageTreeSubDepth",
              "type": "uint8"
            },
            {
              "internalType": "uint8",
              "name": "messageTreeDepth",
              "type": "uint8"
            },
            {
              "internalType": "uint8",
              "name": "voteOptionTreeDepth",
              "type": "uint8"
            }
          ],
          "internalType": "struct Params.TreeDepths",
          "name": "_treeDepths",
          "type": "tuple"
        },
        {
          "components": [
            {
              "internalType": "uint256",
              "name": "x",
              "type": "uint256"
            },
            {
              "internalType": "uint256",
              "name": "y",
              "type": "uint256"
            }
          ],
          "internalType": "struct DomainObjs.PubKey",
          "name": "_coordinatorPubKey",
          "type": "tuple"
        },
        {
          "internalType": "address",
          "name": "_verifier",
          "type": "address"
        },
        {
          "internalType": "address",
          "name": "_vkRegistry",
          "type": "address"
        },
        {
          "internalType": "bool",
          "name": "_useSubsidy",
          "type": "bool"
        }
      ],
      "name": "setConfig",
      "outputs": [],
      "stateMutability": "nonpayable",
      "type": "function"
    },
    {
      "inputs": [
        {
          "internalType": "uint256",
          "name": "_fees",
          "type": "uint256"
        }
      ],
      "name": "setFees",
      "outputs": [],
      "stateMutability": "nonpayable",
      "type": "function"
    },
    {
      "inputs": [
        {
          "internalType": "uint256",
          "name": "_duration",
          "type": "uint256"
        }
      ],
      "name": "setNewVotingTime",
      "outputs": [],
      "stateMutability": "nonpayable",
      "type": "function"
    },
    {
      "inputs": [],
      "name": "totalPolls",
      "outputs": [
        {
          "internalType": "uint256",
          "name": "",
          "type": "uint256"
        }
      ],
      "stateMutability": "view",
      "type": "function"
    },
    {
      "inputs": [
        {
          "internalType": "address",
          "name": "newOwner",
          "type": "address"
        }
      ],
      "name": "transferOwnership",
      "outputs": [],
      "stateMutability": "nonpayable",
      "type": "function"
    },
    {
      "inputs": [],
      "name": "treeDepths",
      "outputs": [
        {
          "internalType": "uint8",
          "name": "intStateTreeDepth",
          "type": "uint8"
        },
        {
          "internalType": "uint8",
          "name": "messageTreeSubDepth",
          "type": "uint8"
        },
        {
          "internalType": "uint8",
          "name": "messageTreeDepth",
          "type": "uint8"
        },
        {
          "internalType": "uint8",
          "name": "voteOptionTreeDepth",
          "type": "uint8"
        }
      ],
      "stateMutability": "view",
      "type": "function"
    },
    {
      "inputs": [],
      "name": "useSubsidy",
      "outputs": [
        {
          "internalType": "bool",
          "name": "",
          "type": "bool"
        }
      ],
      "stateMutability": "view",
      "type": "function"
    },
    {
      "inputs": [],
      "name": "verifier",
      "outputs": [
        {
          "internalType": "address",
          "name": "",
          "type": "address"
        }
      ],
      "stateMutability": "view",
      "type": "function"
    },
    {
      "inputs": [],
      "name": "vkRegistry",
      "outputs": [
        {
          "internalType": "address",
          "name": "",
          "type": "address"
        }
      ],
      "stateMutability": "view",
      "type": "function"
    }
  ],
  "transactionHash": "0xec935fdd30ffcf5224a6a4989dbee1d87225c2a59cf40a63a19eab2ad3be4434",
  "args": [
    "0x6A334C5E7482C2913F0f5a5BBA7e595d40B9EDa1"
  ],
  "numDeployments": 1,
  "solcInputHash": "a4588b622a8f2211e11f8e79b4d11578",
  "bytecode": "0x608060405234801561001057600080fd5b506040516111a93803806111a983398101604081905261002f916100be565b6100383361006e565b662386f26fc10000600155600580546001600160a01b0319166001600160a01b03929092169190911790556102586004556100ee565b600080546001600160a01b038381166001600160a01b0319831681178455604051919092169283917f8be0079c531659141344cd1fd0a4f28419497f9722a3daafe3b4186f6b6457e09190a35050565b6000602082840312156100d057600080fd5b81516001600160a01b03811681146100e757600080fd5b9392505050565b6110ac806100fd6000396000f3fe6080604052600436106101095760003560e01c80638da5cb5b11610095578063ac98e5df11610064578063ac98e5df146102cd578063acf2deeb14610330578063b95e1d2514610350578063f2fde38b14610370578063faacdaa61461039057600080fd5b80638da5cb5b146102505780639af1d35a1461026e578063a2eeeb2f14610284578063ac2f00741461029a57600080fd5b806334a0922c116100dc57806334a0922c146101bf5780633d18678e146101df578063683f3dc314610201578063715018a6146102285780638d255b5a1461023d57600080fd5b80630fb5a6b41461010e57806313fb8932146101375780632b7ac3f31461016f57806331e766a51461018f575b600080fd5b34801561011a57600080fd5b5061012460045481565b6040519081526020015b60405180910390f35b34801561014357600080fd5b50600a54610157906001600160a01b031681565b6040516001600160a01b03909116815260200161012e565b34801561017b57600080fd5b50600954610157906001600160a01b031681565b34801561019b57600080fd5b506007546008546101aa919082565b6040805192835260208301919091520161012e565b3480156101cb57600080fd5b50600554610157906001600160a01b031681565b3480156101eb57600080fd5b506101ff6101fa366004610bd1565b6103c1565b005b34801561020d57600080fd5b50610216600a81565b60405160ff909116815260200161012e565b34801561023457600080fd5b506101ff6103ce565b6101ff61024b366004610c33565b6103e2565b34801561025c57600080fd5b506000546001600160a01b0316610157565b34801561027a57600080fd5b5061012460015481565b34801561029057600080fd5b5061012460035481565b3480156102a657600080fd5b506102ba6102b5366004610bd1565b61073b565b60405161012e9796959493929190610d23565b3480156102d957600080fd5b506006546103039060ff808216916101008104821691620100008204811691630100000090041684565b6040805160ff9586168152938516602085015291841691830191909152909116606082015260800161012e565b34801561033c57600080fd5b506101ff61034b366004610bd1565b61094f565b34801561035c57600080fd5b506101ff61036b366004610e68565b61095c565b34801561037c57600080fd5b506101ff61038b366004610f3b565b610a15565b34801561039c57600080fd5b50600a546103b190600160a01b900460ff1681565b604051901515815260200161012e565b6103c9610a8e565b600155565b6103d6610a8e565b6103e06000610ae8565b565b600154341461042e5760405162461bcd60e51b81526020600482015260136024820152721a5b98dbdc9c9958dd081999595cc81cd95b9d606a1b60448201526064015b60405180910390fd5b60055460048054600954600a54604051630a48e77560e41b81529384019290925260065460ff8082166024860152600882811c82166044870152601083901c8216606487015260189290921c8116608486015260075460a4860152905460c48501526001600160a01b0391821660e4850152818316610104850152600160a01b9092049091161515610124830152600092169063a48e775090610144016080604051808303816000875af11580156104ea573d6000803e3d6000fd5b505050506040513d601f19601f8201168201806040525081019061050e9190610f5f565b604080516101006020601f8c01819004028201810190925260e081018a81529293509182918b908b9081908501838280828437600092019190915250505090825250604080516020601f8a0181900481028201810190925288815291810191908990899081908401838280828437600092019190915250505090825250604080516020601f880181900481028201810190925286815291810191908790879081908401838280828437600092019190915250505090825250336020808301919091526040805160808101825285516001600160a01b039081168252868401518116938201939093528582015183168183015260608087015190931683820152908301526004549101906106219042611008565b8152602001838152506002600060036000815461063d90611020565b9182905550815260208082019290925260400160002082518051919261066892849290910190610b38565b5060208281015180516106819260018501920190610b38565b506040820151805161069d916002840191602090910190610b38565b506060828101516003830180546001600160a01b03199081166001600160a01b0393841617909155608085015180516004860180548416918516919091179055602081015160058601805484169185169190911790556040810151600686018054841691851691909117905590920151600784018054909316911617905560a0820151600882015560c0909101516009909101555050505050505050565b6002602052600090815260409020805481906107569061103b565b80601f01602080910402602001604051908101604052809291908181526020018280546107829061103b565b80156107cf5780601f106107a4576101008083540402835291602001916107cf565b820191906000526020600020905b8154815290600101906020018083116107b257829003601f168201915b5050505050908060010180546107e49061103b565b80601f01602080910402602001604051908101604052809291908181526020018280546108109061103b565b801561085d5780601f106108325761010080835404028352916020019161085d565b820191906000526020600020905b81548152906001019060200180831161084057829003601f168201915b5050505050908060020180546108729061103b565b80601f016020809104026020016040519081016040528092919081815260200182805461089e9061103b565b80156108eb5780601f106108c0576101008083540402835291602001916108eb565b820191906000526020600020905b8154815290600101906020018083116108ce57829003601f168201915b50505060038401546040805160808101825260048701546001600160a01b0390811682526005880154811660208301526006880154811692820192909252600787015482166060820152600887015460099097015495969190921694919350915087565b610957610a8e565b600455565b610964610a8e565b84516006805460208089015160408a01516060909a015160ff90811663010000000263ff000000199b821662010000029b909b1663ffff0000199282166101000261ffff1990951691909616179290921791909116929092179690961790955583516007559290930151600855600980546001600160a01b039283166001600160a01b0319909116179055600a8054921515600160a01b026001600160a81b03199093169390911692909217179055565b610a1d610a8e565b6001600160a01b038116610a825760405162461bcd60e51b815260206004820152602660248201527f4f776e61626c653a206e6577206f776e657220697320746865207a65726f206160448201526564647265737360d01b6064820152608401610425565b610a8b81610ae8565b50565b6000546001600160a01b031633146103e05760405162461bcd60e51b815260206004820181905260248201527f4f776e61626c653a2063616c6c6572206973206e6f7420746865206f776e65726044820152606401610425565b600080546001600160a01b038381166001600160a01b0319831681178455604051919092169283917f8be0079c531659141344cd1fd0a4f28419497f9722a3daafe3b4186f6b6457e09190a35050565b828054610b449061103b565b90600052602060002090601f016020900481019282610b665760008555610bac565b82601f10610b7f57805160ff1916838001178555610bac565b82800160010185558215610bac579182015b82811115610bac578251825591602001919060010190610b91565b50610bb8929150610bbc565b5090565b5b80821115610bb85760008155600101610bbd565b600060208284031215610be357600080fd5b5035919050565b60008083601f840112610bfc57600080fd5b50813567ffffffffffffffff811115610c1457600080fd5b602083019150836020828501011115610c2c57600080fd5b9250929050565b60008060008060008060006080888a031215610c4e57600080fd5b873567ffffffffffffffff80821115610c6657600080fd5b610c728b838c01610bea565b909950975060208a0135915080821115610c8b57600080fd5b610c978b838c01610bea565b909750955060408a0135915080821115610cb057600080fd5b50610cbd8a828b01610bea565b989b979a50959894979596606090950135949350505050565b6000815180845260005b81811015610cfc57602081850181015186830182015201610ce0565b81811115610d0e576000602083870101525b50601f01601f19169290920160200192915050565b6000610140808352610d378184018b610cd6565b90508281036020840152610d4b818a610cd6565b90508281036040840152610d5f8189610cd6565b6001600160a01b039788166060858101919091528751891660808601526020880151891660a08601526040880151891660c0860152969096015190961660e08301525061010081019290925261012090910152949350505050565b6040516080810167ffffffffffffffff81118282101715610deb57634e487b7160e01b600052604160045260246000fd5b60405290565b6040805190810167ffffffffffffffff81118282101715610deb57634e487b7160e01b600052604160045260246000fd5b803560ff81168114610e3357600080fd5b919050565b6001600160a01b0381168114610a8b57600080fd5b8035610e3381610e38565b80358015158114610e3357600080fd5b6000806000806000858703610120811215610e8257600080fd5b6080811215610e9057600080fd5b610e98610dba565b610ea188610e22565b8152610eaf60208901610e22565b6020820152610ec060408901610e22565b6040820152610ed160608901610e22565b606082015295506040607f1982011215610eea57600080fd5b50610ef3610df1565b6080870135815260a087013560208201529350610f1260c08701610e4d565b9250610f2060e08701610e4d565b9150610f2f6101008701610e58565b90509295509295909350565b600060208284031215610f4d57600080fd5b8135610f5881610e38565b9392505050565b600060808284031215610f7157600080fd5b6040516080810181811067ffffffffffffffff82111715610fa257634e487b7160e01b600052604160045260246000fd5b6040528251610fb081610e38565b81526020830151610fc081610e38565b60208201526040830151610fd381610e38565b60408201526060830151610fe681610e38565b60608201529392505050565b634e487b7160e01b600052601160045260246000fd5b6000821982111561101b5761101b610ff2565b500190565b600060001982141561103457611034610ff2565b5060010190565b600181811c9082168061104f57607f821691505b6020821081141561107057634e487b7160e01b600052602260045260246000fd5b5091905056fea2646970667358221220d547e2402d0c221cd72845a0b6b27950040d4c27a0fdfeb723b9fa5b3ae40d2464736f6c634300080a0033",
  "devdoc": {
    "kind": "dev",
    "methods": {
      "owner()": {
        "details": "Returns the address of the current owner."
      },
      "renounceOwnership()": {
        "details": "Leaves the contract without owner. It will not be possible to call `onlyOwner` functions anymore. Can only be called by the current owner. NOTE: Renouncing ownership will leave the contract without an owner, thereby removing any functionality that is only available to the owner."
      },
      "transferOwnership(address)": {
        "details": "Transfers ownership of the contract to a new account (`newOwner`). Can only be called by the current owner."
      }
    },
    "version": 1
  },
  "userdoc": {
    "kind": "user",
    "methods": {
      "MESSAGE_DATA_LENGTH()": {
        "notice": "the length of a MACI message"
      }
    },
    "version": 1
  },
  "storageLayout": {
    "storage": [
      {
        "astId": 7,
        "contract": "contracts/PollManager.sol:PollManager",
        "label": "_owner",
        "offset": 0,
        "slot": "0",
        "type": "t_address"
      },
      {
        "astId": 1481,
        "contract": "contracts/PollManager.sol:PollManager",
        "label": "fees",
        "offset": 0,
        "slot": "1",
        "type": "t_uint256"
      },
      {
        "astId": 1486,
        "contract": "contracts/PollManager.sol:PollManager",
        "label": "polls",
        "offset": 0,
        "slot": "2",
        "type": "t_mapping(t_uint256,t_struct(PollData)1479_storage)"
      },
      {
        "astId": 1488,
        "contract": "contracts/PollManager.sol:PollManager",
        "label": "totalPolls",
        "offset": 0,
        "slot": "3",
        "type": "t_uint256"
      },
      {
        "astId": 1490,
        "contract": "contracts/PollManager.sol:PollManager",
        "label": "duration",
        "offset": 0,
        "slot": "4",
        "type": "t_uint256"
      },
      {
        "astId": 1493,
        "contract": "contracts/PollManager.sol:PollManager",
        "label": "maci",
        "offset": 0,
        "slot": "5",
        "type": "t_contract(MACI)1440"
      },
      {
        "astId": 1496,
        "contract": "contracts/PollManager.sol:PollManager",
        "label": "treeDepths",
        "offset": 0,
        "slot": "6",
        "type": "t_struct(TreeDepths)3784_storage"
      },
      {
        "astId": 1499,
        "contract": "contracts/PollManager.sol:PollManager",
        "label": "coordinatorPubKey",
        "offset": 0,
        "slot": "7",
        "type": "t_struct(PubKey)3757_storage"
      },
      {
        "astId": 1501,
        "contract": "contracts/PollManager.sol:PollManager",
        "label": "verifier",
        "offset": 0,
        "slot": "9",
        "type": "t_address"
      },
      {
        "astId": 1503,
        "contract": "contracts/PollManager.sol:PollManager",
        "label": "vkRegistry",
        "offset": 0,
        "slot": "10",
        "type": "t_address"
      },
      {
        "astId": 1505,
        "contract": "contracts/PollManager.sol:PollManager",
        "label": "useSubsidy",
        "offset": 20,
        "slot": "10",
        "type": "t_bool"
      }
    ],
    "types": {
      "t_address": {
        "encoding": "inplace",
        "label": "address",
        "numberOfBytes": "20"
      },
      "t_bool": {
        "encoding": "inplace",
        "label": "bool",
        "numberOfBytes": "1"
      },
      "t_bytes_storage": {
        "encoding": "bytes",
        "label": "bytes",
        "numberOfBytes": "32"
      },
      "t_contract(MACI)1440": {
        "encoding": "inplace",
        "label": "contract MACI",
        "numberOfBytes": "20"
      },
      "t_mapping(t_uint256,t_struct(PollData)1479_storage)": {
        "encoding": "mapping",
        "key": "t_uint256",
        "label": "mapping(uint256 => struct PollManager.PollData)",
        "numberOfBytes": "32",
        "value": "t_struct(PollData)1479_storage"
      },
      "t_string_storage": {
        "encoding": "bytes",
        "label": "string",
        "numberOfBytes": "32"
      },
      "t_struct(PollContracts)1463_storage": {
        "encoding": "inplace",
        "label": "struct PollManager.PollContracts",
        "members": [
          {
            "astId": 1456,
            "contract": "contracts/PollManager.sol:PollManager",
            "label": "poll",
            "offset": 0,
            "slot": "0",
            "type": "t_address"
          },
          {
            "astId": 1458,
            "contract": "contracts/PollManager.sol:PollManager",
            "label": "messageProcessor",
            "offset": 0,
            "slot": "1",
            "type": "t_address"
          },
          {
            "astId": 1460,
            "contract": "contracts/PollManager.sol:PollManager",
            "label": "tally",
            "offset": 0,
            "slot": "2",
            "type": "t_address"
          },
          {
            "astId": 1462,
            "contract": "contracts/PollManager.sol:PollManager",
            "label": "subsidy",
            "offset": 0,
            "slot": "3",
            "type": "t_address"
          }
        ],
        "numberOfBytes": "128"
      },
      "t_struct(PollData)1479_storage": {
        "encoding": "inplace",
        "label": "struct PollManager.PollData",
        "members": [
          {
            "astId": 1465,
            "contract": "contracts/PollManager.sol:PollManager",
            "label": "name",
            "offset": 0,
            "slot": "0",
            "type": "t_string_storage"
          },
          {
            "astId": 1467,
            "contract": "contracts/PollManager.sol:PollManager",
            "label": "options",
            "offset": 0,
            "slot": "1",
            "type": "t_bytes_storage"
          },
          {
            "astId": 1469,
            "contract": "contracts/PollManager.sol:PollManager",
            "label": "ipfsHash",
            "offset": 0,
            "slot": "2",
            "type": "t_string_storage"
          },
          {
            "astId": 1471,
            "contract": "contracts/PollManager.sol:PollManager",
            "label": "creator",
            "offset": 0,
            "slot": "3",
            "type": "t_address"
          },
          {
            "astId": 1474,
            "contract": "contracts/PollManager.sol:PollManager",
            "label": "pollContracts",
            "offset": 0,
            "slot": "4",
            "type": "t_struct(PollContracts)1463_storage"
          },
          {
            "astId": 1476,
            "contract": "contracts/PollManager.sol:PollManager",
            "label": "endTime",
            "offset": 0,
            "slot": "8",
            "type": "t_uint256"
          },
          {
            "astId": 1478,
            "contract": "contracts/PollManager.sol:PollManager",
            "label": "numOfOptions",
            "offset": 0,
            "slot": "9",
            "type": "t_uint256"
          }
        ],
        "numberOfBytes": "320"
      },
      "t_struct(PubKey)3757_storage": {
        "encoding": "inplace",
        "label": "struct DomainObjs.PubKey",
        "members": [
          {
            "astId": 3754,
            "contract": "contracts/PollManager.sol:PollManager",
            "label": "x",
            "offset": 0,
            "slot": "0",
            "type": "t_uint256"
          },
          {
            "astId": 3756,
            "contract": "contracts/PollManager.sol:PollManager",
            "label": "y",
            "offset": 0,
            "slot": "1",
            "type": "t_uint256"
          }
        ],
        "numberOfBytes": "64"
      },
      "t_struct(TreeDepths)3784_storage": {
        "encoding": "inplace",
        "label": "struct Params.TreeDepths",
        "members": [
          {
            "astId": 3777,
            "contract": "contracts/PollManager.sol:PollManager",
            "label": "intStateTreeDepth",
            "offset": 0,
            "slot": "0",
            "type": "t_uint8"
          },
          {
            "astId": 3779,
            "contract": "contracts/PollManager.sol:PollManager",
            "label": "messageTreeSubDepth",
            "offset": 1,
            "slot": "0",
            "type": "t_uint8"
          },
          {
            "astId": 3781,
            "contract": "contracts/PollManager.sol:PollManager",
            "label": "messageTreeDepth",
            "offset": 2,
            "slot": "0",
            "type": "t_uint8"
          },
          {
            "astId": 3783,
            "contract": "contracts/PollManager.sol:PollManager",
            "label": "voteOptionTreeDepth",
            "offset": 3,
            "slot": "0",
            "type": "t_uint8"
          }
        ],
        "numberOfBytes": "32"
      },
      "t_uint256": {
        "encoding": "inplace",
        "label": "uint256",
        "numberOfBytes": "32"
      },
      "t_uint8": {
        "encoding": "inplace",
        "label": "uint8",
        "numberOfBytes": "1"
      }
    }
  }
}