{
  "address": "0xc075BC0f734EFE6ceD866324fc2A9DBe1065CBB1",
  "abi": [
    {
      "inputs": [
        {
          "internalType": "contract IPollFactory",
          "name": "_pollFactory",
          "type": "address"
        },
        {
          "internalType": "contract IMessageProcessorFactory",
          "name": "_messageProcessorFactory",
          "type": "address"
        },
        {
          "internalType": "contract ITallySubsidyFactory",
          "name": "_tallyFactory",
          "type": "address"
        },
        {
          "internalType": "contract ITallySubsidyFactory",
          "name": "_subsidyFactory",
          "type": "address"
        },
        {
          "internalType": "contract SignUpGatekeeper",
          "name": "_signUpGatekeeper",
          "type": "address"
        },
        {
          "internalType": "contract InitialVoiceCreditProxy",
          "name": "_initialVoiceCreditProxy",
          "type": "address"
        },
        {
          "internalType": "contract TopupCredit",
          "name": "_topupCredit",
          "type": "address"
        },
        {
          "internalType": "uint8",
          "name": "_stateTreeDepth",
          "type": "uint8"
        }
      ],
      "stateMutability": "payable",
      "type": "constructor"
    },
    {
      "inputs": [
        {
          "internalType": "address",
          "name": "_caller",
          "type": "address"
        }
      ],
      "name": "CallerMustBePoll",
      "type": "error"
    },
    {
      "inputs": [],
      "name": "InvalidMessage",
      "type": "error"
    },
    {
      "inputs": [],
      "name": "MaciPubKeyLargerThanSnarkFieldSize",
      "type": "error"
    },
    {
      "inputs": [
        {
          "internalType": "uint256",
          "name": "pollId",
          "type": "uint256"
        }
      ],
      "name": "PollDoesNotExist",
      "type": "error"
    },
    {
      "inputs": [],
      "name": "PoseidonHashLibrariesNotLinked",
      "type": "error"
    },
    {
      "inputs": [
        {
          "internalType": "uint256",
          "name": "pollId",
          "type": "uint256"
        }
      ],
      "name": "PreviousPollNotCompleted",
      "type": "error"
    },
    {
      "inputs": [],
      "name": "SignupTemporaryBlocked",
      "type": "error"
    },
    {
      "inputs": [],
      "name": "TooManySignups",
      "type": "error"
    },
    {
      "anonymous": false,
      "inputs": [
        {
          "indexed": false,
          "internalType": "uint256",
          "name": "_pollId",
          "type": "uint256"
        },
        {
          "indexed": true,
          "internalType": "uint256",
          "name": "_coordinatorPubKeyX",
          "type": "uint256"
        },
        {
          "indexed": true,
          "internalType": "uint256",
          "name": "_coordinatorPubKeyY",
          "type": "uint256"
        },
        {
          "components": [
            {
              "internalType": "address",
              "name": "poll",
              "type": "address"
            },
            {
              "internalType": "address",
              "name": "messageProcessor",
              "type": "address"
            },
            {
              "internalType": "address",
              "name": "tally",
              "type": "address"
            },
            {
              "internalType": "address",
              "name": "subsidy",
              "type": "address"
            }
          ],
          "indexed": false,
          "internalType": "struct MACI.PollContracts",
          "name": "pollAddr",
          "type": "tuple"
        }
      ],
      "name": "DeployPoll",
      "type": "event"
    },
    {
      "anonymous": false,
      "inputs": [
        {
          "indexed": true,
          "internalType": "address",
          "name": "previousOwner",
          "type": "address"
        },
        {
          "indexed": true,
          "internalType": "address",
          "name": "newOwner",
          "type": "address"
        }
      ],
      "name": "OwnershipTransferred",
      "type": "event"
    },
    {
      "anonymous": false,
      "inputs": [
        {
          "indexed": false,
          "internalType": "uint256",
          "name": "_stateIndex",
          "type": "uint256"
        },
        {
          "indexed": true,
          "internalType": "uint256",
          "name": "_userPubKeyX",
          "type": "uint256"
        },
        {
          "indexed": true,
          "internalType": "uint256",
          "name": "_userPubKeyY",
          "type": "uint256"
        },
        {
          "indexed": false,
          "internalType": "uint256",
          "name": "_voiceCreditBalance",
          "type": "uint256"
        },
        {
          "indexed": false,
          "internalType": "uint256",
          "name": "_timestamp",
          "type": "uint256"
        }
      ],
      "name": "SignUp",
      "type": "event"
    },
    {
      "inputs": [],
      "name": "MESSAGE_DATA_LENGTH",
      "outputs": [
        {
          "internalType": "uint8",
          "name": "",
          "type": "uint8"
        }
      ],
      "stateMutability": "view",
      "type": "function"
    },
    {
      "inputs": [
        {
          "internalType": "uint256",
          "name": "_duration",
          "type": "uint256"
        },
        {
          "components": [
            {
              "internalType": "uint8",
              "name": "intStateTreeDepth",
              "type": "uint8"
            },
            {
              "internalType": "uint8",
              "name": "messageTreeSubDepth",
              "type": "uint8"
            },
            {
              "internalType": "uint8",
              "name": "messageTreeDepth",
              "type": "uint8"
            },
            {
              "internalType": "uint8",
              "name": "voteOptionTreeDepth",
              "type": "uint8"
            }
          ],
          "internalType": "struct Params.TreeDepths",
          "name": "_treeDepths",
          "type": "tuple"
        },
        {
          "components": [
            {
              "internalType": "uint256",
              "name": "x",
              "type": "uint256"
            },
            {
              "internalType": "uint256",
              "name": "y",
              "type": "uint256"
            }
          ],
          "internalType": "struct DomainObjs.PubKey",
          "name": "_coordinatorPubKey",
          "type": "tuple"
        },
        {
          "internalType": "address",
          "name": "_verifier",
          "type": "address"
        },
        {
          "internalType": "address",
          "name": "_vkRegistry",
          "type": "address"
        },
        {
          "internalType": "bool",
          "name": "useSubsidy",
          "type": "bool"
        }
      ],
      "name": "deployPoll",
      "outputs": [
        {
          "components": [
            {
              "internalType": "address",
              "name": "poll",
              "type": "address"
            },
            {
              "internalType": "address",
              "name": "messageProcessor",
              "type": "address"
            },
            {
              "internalType": "address",
              "name": "tally",
              "type": "address"
            },
            {
              "internalType": "address",
              "name": "subsidy",
              "type": "address"
            }
          ],
          "internalType": "struct MACI.PollContracts",
          "name": "pollAddr",
          "type": "tuple"
        }
      ],
      "stateMutability": "nonpayable",
      "type": "function"
    },
    {
      "inputs": [
        {
          "internalType": "uint256",
          "name": "_pollId",
          "type": "uint256"
        }
      ],
      "name": "getPoll",
      "outputs": [
        {
          "internalType": "address",
          "name": "poll",
          "type": "address"
        }
      ],
      "stateMutability": "view",
      "type": "function"
    },
    {
      "inputs": [],
      "name": "getStateAqRoot",
      "outputs": [
        {
          "internalType": "uint256",
          "name": "root",
          "type": "uint256"
        }
      ],
      "stateMutability": "view",
      "type": "function"
    },
    {
      "inputs": [
        {
          "internalType": "uint256[2]",
          "name": "array",
          "type": "uint256[2]"
        }
      ],
      "name": "hash2",
      "outputs": [
        {
          "internalType": "uint256",
          "name": "result",
          "type": "uint256"
        }
      ],
      "stateMutability": "pure",
      "type": "function"
    },
    {
      "inputs": [
        {
          "internalType": "uint256[3]",
          "name": "array",
          "type": "uint256[3]"
        }
      ],
      "name": "hash3",
      "outputs": [
        {
          "internalType": "uint256",
          "name": "result",
          "type": "uint256"
        }
      ],
      "stateMutability": "pure",
      "type": "function"
    },
    {
      "inputs": [
        {
          "internalType": "uint256[4]",
          "name": "array",
          "type": "uint256[4]"
        }
      ],
      "name": "hash4",
      "outputs": [
        {
          "internalType": "uint256",
          "name": "result",
          "type": "uint256"
        }
      ],
      "stateMutability": "pure",
      "type": "function"
    },
    {
      "inputs": [
        {
          "internalType": "uint256[5]",
          "name": "array",
          "type": "uint256[5]"
        }
      ],
      "name": "hash5",
      "outputs": [
        {
          "internalType": "uint256",
          "name": "result",
          "type": "uint256"
        }
      ],
      "stateMutability": "pure",
      "type": "function"
    },
    {
      "inputs": [
        {
          "internalType": "uint256",
          "name": "left",
          "type": "uint256"
        },
        {
          "internalType": "uint256",
          "name": "right",
          "type": "uint256"
        }
      ],
      "name": "hashLeftRight",
      "outputs": [
        {
          "internalType": "uint256",
          "name": "result",
          "type": "uint256"
        }
      ],
      "stateMutability": "pure",
      "type": "function"
    },
    {
      "inputs": [
        {
          "components": [
            {
              "internalType": "uint256",
              "name": "msgType",
              "type": "uint256"
            },
            {
              "internalType": "uint256[10]",
              "name": "data",
              "type": "uint256[10]"
            }
          ],
          "internalType": "struct DomainObjs.Message",
          "name": "_message",
          "type": "tuple"
        },
        {
          "components": [
            {
              "internalType": "uint256",
              "name": "x",
              "type": "uint256"
            },
            {
              "internalType": "uint256",
              "name": "y",
              "type": "uint256"
            }
          ],
          "internalType": "struct DomainObjs.PubKey",
          "name": "_encPubKey",
          "type": "tuple"
        }
      ],
      "name": "hashMessageAndEncPubKey",
      "outputs": [
        {
          "internalType": "uint256",
          "name": "msgHash",
          "type": "uint256"
        }
      ],
      "stateMutability": "pure",
      "type": "function"
    },
    {
      "inputs": [
        {
          "components": [
            {
              "components": [
                {
                  "internalType": "uint256",
                  "name": "x",
                  "type": "uint256"
                },
                {
                  "internalType": "uint256",
                  "name": "y",
                  "type": "uint256"
                }
              ],
              "internalType": "struct DomainObjs.PubKey",
              "name": "pubKey",
              "type": "tuple"
            },
            {
              "internalType": "uint256",
              "name": "voiceCreditBalance",
              "type": "uint256"
            },
            {
              "internalType": "uint256",
              "name": "timestamp",
              "type": "uint256"
            }
          ],
          "internalType": "struct DomainObjs.StateLeaf",
          "name": "_stateLeaf",
          "type": "tuple"
        }
      ],
      "name": "hashStateLeaf",
      "outputs": [
        {
          "internalType": "uint256",
          "name": "ciphertext",
          "type": "uint256"
        }
      ],
      "stateMutability": "pure",
      "type": "function"
    },
    {
      "inputs": [],
      "name": "initialVoiceCreditProxy",
      "outputs": [
        {
          "internalType": "contract InitialVoiceCreditProxy",
          "name": "",
          "type": "address"
        }
      ],
      "stateMutability": "view",
      "type": "function"
    },
    {
      "inputs": [],
      "name": "manager",
      "outputs": [
        {
          "internalType": "address",
          "name": "",
          "type": "address"
        }
      ],
      "stateMutability": "view",
      "type": "function"
    },
    {
      "inputs": [
        {
          "internalType": "uint256",
          "name": "_pollId",
          "type": "uint256"
        }
      ],
      "name": "mergeStateAq",
      "outputs": [
        {
          "internalType": "uint256",
          "name": "root",
          "type": "uint256"
        }
      ],
      "stateMutability": "nonpayable",
      "type": "function"
    },
    {
      "inputs": [
        {
          "internalType": "uint256",
          "name": "_numSrQueueOps",
          "type": "uint256"
        },
        {
          "internalType": "uint256",
          "name": "_pollId",
          "type": "uint256"
        }
      ],
      "name": "mergeStateAqSubRoots",
      "outputs": [],
      "stateMutability": "nonpayable",
      "type": "function"
    },
    {
      "inputs": [],
      "name": "messageProcessorFactory",
      "outputs": [
        {
          "internalType": "contract IMessageProcessorFactory",
          "name": "",
          "type": "address"
        }
      ],
      "stateMutability": "view",
      "type": "function"
    },
    {
      "inputs": [],
      "name": "nextPollId",
      "outputs": [
        {
          "internalType": "uint256",
          "name": "",
          "type": "uint256"
        }
      ],
      "stateMutability": "view",
      "type": "function"
    },
    {
      "inputs": [],
      "name": "numSignUps",
      "outputs": [
        {
          "internalType": "uint256",
          "name": "",
          "type": "uint256"
        }
      ],
      "stateMutability": "view",
      "type": "function"
    },
    {
      "inputs": [],
      "name": "owner",
      "outputs": [
        {
          "internalType": "address",
          "name": "",
          "type": "address"
        }
      ],
      "stateMutability": "view",
      "type": "function"
    },
    {
      "inputs": [
        {
          "internalType": "uint256[2]",
          "name": "dataToPad",
          "type": "uint256[2]"
        },
        {
          "internalType": "uint256",
          "name": "msgType",
          "type": "uint256"
        }
      ],
      "name": "padAndHashMessage",
      "outputs": [
        {
          "components": [
            {
              "internalType": "uint256",
              "name": "msgType",
              "type": "uint256"
            },
            {
              "internalType": "uint256[10]",
              "name": "data",
              "type": "uint256[10]"
            }
          ],
          "internalType": "struct DomainObjs.Message",
          "name": "message",
          "type": "tuple"
        },
        {
          "components": [
            {
              "internalType": "uint256",
              "name": "x",
              "type": "uint256"
            },
            {
              "internalType": "uint256",
              "name": "y",
              "type": "uint256"
            }
          ],
          "internalType": "struct DomainObjs.PubKey",
          "name": "padKey",
          "type": "tuple"
        },
        {
          "internalType": "uint256",
          "name": "msgHash",
          "type": "uint256"
        }
      ],
      "stateMutability": "pure",
      "type": "function"
    },
    {
      "inputs": [],
      "name": "pollFactory",
      "outputs": [
        {
          "internalType": "contract IPollFactory",
          "name": "",
          "type": "address"
        }
      ],
      "stateMutability": "view",
      "type": "function"
    },
    {
      "inputs": [
        {
          "internalType": "uint256",
          "name": "",
          "type": "uint256"
        }
      ],
      "name": "polls",
      "outputs": [
        {
          "internalType": "address",
          "name": "",
          "type": "address"
        }
      ],
      "stateMutability": "view",
      "type": "function"
    },
    {
      "inputs": [],
      "name": "renounceOwnership",
      "outputs": [],
      "stateMutability": "nonpayable",
      "type": "function"
    },
    {
      "inputs": [
        {
          "internalType": "uint256[]",
          "name": "array",
          "type": "uint256[]"
        }
      ],
      "name": "sha256Hash",
      "outputs": [
        {
          "internalType": "uint256",
          "name": "result",
          "type": "uint256"
        }
      ],
      "stateMutability": "pure",
      "type": "function"
    },
    {
      "inputs": [
        {
          "components": [
            {
              "internalType": "uint256",
              "name": "x",
              "type": "uint256"
            },
            {
              "internalType": "uint256",
              "name": "y",
              "type": "uint256"
            }
          ],
          "internalType": "struct DomainObjs.PubKey",
          "name": "_pubKey",
          "type": "tuple"
        },
        {
          "internalType": "bytes",
          "name": "_signUpGatekeeperData",
          "type": "bytes"
        },
        {
          "internalType": "bytes",
          "name": "_initialVoiceCreditProxyData",
          "type": "bytes"
        }
      ],
      "name": "signUp",
      "outputs": [],
      "stateMutability": "nonpayable",
      "type": "function"
    },
    {
      "inputs": [],
      "name": "signUpGatekeeper",
      "outputs": [
        {
          "internalType": "contract SignUpGatekeeper",
          "name": "",
          "type": "address"
        }
      ],
      "stateMutability": "view",
      "type": "function"
    },
    {
      "inputs": [],
      "name": "stateAq",
      "outputs": [
        {
          "internalType": "contract AccQueue",
          "name": "",
          "type": "address"
        }
      ],
      "stateMutability": "view",
      "type": "function"
    },
    {
      "inputs": [],
      "name": "stateTreeDepth",
      "outputs": [
        {
          "internalType": "uint8",
          "name": "",
          "type": "uint8"
        }
      ],
      "stateMutability": "view",
      "type": "function"
    },
    {
      "inputs": [],
      "name": "subsidyFactory",
      "outputs": [
        {
          "internalType": "contract ITallySubsidyFactory",
          "name": "",
          "type": "address"
        }
      ],
      "stateMutability": "view",
      "type": "function"
    },
    {
      "inputs": [],
      "name": "subtreesMerged",
      "outputs": [
        {
          "internalType": "bool",
          "name": "",
          "type": "bool"
        }
      ],
      "stateMutability": "view",
      "type": "function"
    },
    {
      "inputs": [],
      "name": "tallyFactory",
      "outputs": [
        {
          "internalType": "contract ITallySubsidyFactory",
          "name": "",
          "type": "address"
        }
      ],
      "stateMutability": "view",
      "type": "function"
    },
    {
      "inputs": [],
      "name": "topupCredit",
      "outputs": [
        {
          "internalType": "contract TopupCredit",
          "name": "",
          "type": "address"
        }
      ],
      "stateMutability": "view",
      "type": "function"
    },
    {
      "inputs": [
        {
          "internalType": "address",
          "name": "newOwner",
          "type": "address"
        }
      ],
      "name": "transferOwnership",
      "outputs": [],
      "stateMutability": "nonpayable",
      "type": "function"
    },
    {
      "inputs": [
        {
          "internalType": "address",
          "name": "_manager",
          "type": "address"
        }
      ],
      "name": "updateManager",
      "outputs": [],
      "stateMutability": "nonpayable",
      "type": "function"
    }
  ],
  "transactionHash": "0x348f381d5dfc72babe95eb7769479017fbfe10186eeb11f8230c07f096f46b43",
  "args": [
    "0x05bB67cB592C1753425192bF8f34b95ca8649f09",
    "0xa85EffB2658CFd81e0B1AaD4f2364CdBCd89F3a1",
    "0x8aAC5570d54306Bb395bf2385ad327b7b706016b",
    "0x64f5219563e28EeBAAd91Ca8D31fa3b36621FD4f",
    "0x38F6F2caE52217101D7CA2a5eC040014b4164E6C",
    "0x26291175Fa0Ea3C8583fEdEB56805eA68289b105",
    "0x12456Fa31e57F91B70629c1196337074c966492a",
    10
  ],
  "numDeployments": 3,
  "solcInputHash": "7691986b9cf2acec079fd1b55855e243",
  "bytecode": "0x6101a06040526040516200489c3803806200489c83398101604081905262000027916200028d565b620000323362000190565b6002604051620000429062000266565b60ff9091168152602001604051809103906000f08015801562000069573d6000803e3d6000fd5b506001600160a01b0316610140819052604051631ffc735d60e01b81527f0ef71f46e11a513c599eed9dd03576c33439bcfb1cee155316f90541e41649ba6004820152631ffc735d906024016020604051808303816000875af1158015620000d5573d6000803e3d6000fd5b505050506040513d601f19601f82011682018060405250810190620000fb919062000353565b506004805460019081019091556001600160a01b03808a1660c05288811660e052878116610100528681166101205283811660a0528581166101605284166101805260ff82166080526040805180820190915281815260208101919091526200016490620001e0565b6200018257604051633d7ba68560e21b815260040160405180910390fd5b5050505050505050620003a0565b600080546001600160a01b038381166001600160a01b0319831681178455604051919092169283917f8be0079c531659141344cd1fd0a4f28419497f9722a3daafe3b4186f6b6457e09190a35050565b6040516314d2f97b60e11b815260009073ce830DA8667097BB491A70da268b76a081211814906329a5f2f6906200021c9085906004016200036d565b602060405180830381865af41580156200023a573d6000803e3d6000fd5b505050506040513d601f19601f8201168201806040525081019062000260919062000353565b92915050565b612336806200256683390190565b6001600160a01b03811681146200028a57600080fd5b50565b600080600080600080600080610100898b031215620002ab57600080fd5b8851620002b88162000274565b60208a0151909850620002cb8162000274565b60408a0151909750620002de8162000274565b60608a0151909650620002f18162000274565b60808a0151909550620003048162000274565b60a08a0151909450620003178162000274565b60c08a01519093506200032a8162000274565b60e08a015190925060ff811681146200034257600080fd5b809150509295985092959890939650565b6000602082840312156200036657600080fd5b5051919050565b60408101818360005b60028110156200039757815183526020928301929091019060010162000376565b50505092915050565b60805160a05160c05160e05161010051610120516101405161016051610180516120ec6200047a600039600081816104d5015261099001526000818161027601526109100152600081816103d40152818161079301528181610a59015281816112280152818161128e01526113a3015260008181610312015261108801526000818161040e0152610fd20152600081816102100152610f2001526000818161034e0152610e2a01526000818161029d0152610e5e0152600081816104350152818161076901528181610836015261137c01526120ec6000f3fe608060405234801561001057600080fd5b50600436106102065760003560e01c8063603baff81161011a5780639cfced97116100ad578063bea140b31161007c578063bea140b314610520578063c02db7b814610533578063cfa1fa0314610550578063dd0982a314610563578063f2fde38b1461057657600080fd5b80639cfced971461049d578063a48e7750146104b0578063aab4a670146104d0578063ac2f0074146104f757600080fd5b8063683f3dc3116100e9578063683f3dc314610469578063715018a6146104715780637d0a81c8146104795780638da5cb5b1461048c57600080fd5b8063603baff8146103cf57806362a361bb146103f657806362b31f1e14610409578063652c76e41461043057600080fd5b80632b7865711161019d5780633dfb88b21161016c5780633dfb88b214610370578063481c6a751461038357806358aba00f1461039657806358bfc379146103a95780635bb93995146103bc57600080fd5b80632b7865711461030457806330e6f3781461030d5780633364120a14610334578063343393b51461034957600080fd5b8063122db153116101d9578063122db153146102bf578063167fd483146102d65780631a8cbcaa146102e95780632877e036146102fc57600080fd5b8063055575eb1461020b57806306912d3c1461024f578063079410db146102715780630dd5a88814610298575b600080fd5b6102327f000000000000000000000000000000000000000000000000000000000000000081565b6040516001600160a01b0390911681526020015b60405180910390f35b61026261025d3660046116d7565b610589565b60405161024693929190611702565b6102327f000000000000000000000000000000000000000000000000000000000000000081565b6102327f000000000000000000000000000000000000000000000000000000000000000081565b6102c860045481565b604051908152602001610246565b6102c86102e4366004611788565b610637565b6102326102f7366004611822565b610710565b6102c8610758565b6102c860015481565b6102327f000000000000000000000000000000000000000000000000000000000000000081565b6103476103423660046118ab565b61080b565b005b6102327f000000000000000000000000000000000000000000000000000000000000000081565b6102c861037e366004611916565b610b1b565b600554610232906001600160a01b031681565b6103476103a4366004611994565b610b9c565b6102c86103b73660046119b1565b610bc6565b6102c86103ca366004611a57565b610c60565b6102327f000000000000000000000000000000000000000000000000000000000000000081565b6102c8610404366004611a79565b610c85565b6102327f000000000000000000000000000000000000000000000000000000000000000081565b6104577f000000000000000000000000000000000000000000000000000000000000000081565b60405160ff9091168152602001610246565b610457600a81565b610347610cbf565b6102c8610487366004611a95565b610cd3565b6000546001600160a01b0316610232565b6102c86104ab366004611af7565b610d13565b6104c36104be366004611b7a565b610d4d565b6040516102469190611c5a565b6102327f000000000000000000000000000000000000000000000000000000000000000081565b610232610505366004611822565b6002602052600090815260409020546001600160a01b031681565b6102c861052e366004611c96565b61119d565b6003546105409060ff1681565b6040519015158152602001610246565b61034761055e366004611a57565b6111d7565b6102c8610571366004611822565b611326565b610347610584366004611994565b611418565b61059161153b565b604080518082019091526000808252602082015260006105af61155a565b85518152602080870151828201526040805180820182527f171e826ad4a870fd925e0bf0e87884e70e080879c2205ef10114f28a3b6f6dd781527f2bd407d897fbbca9f88adfd2d15252e69de8c1564eb4d3d27162e259172f1a1d8184015281518083019092528782529181018390529450925061062d8484610637565b9150509250925092565b6000610641611579565b602084810180515183528051820151918301919091528051604090810151908301528051606090810151908301525160809081015190820152610682611579565b6020858101805160a0908101518452815160c0015184840152815160e001516040808601919091528251610100015160608601529151610120015160808501528151908101909152865181526107079181016106dd85610d13565b81526020016106eb84610d13565b8152602001866000015181526020018660200151815250610d13565b95945050505050565b6000600154821061073c5760405163a86ecdd560e01b8152600481018390526024015b60405180910390fd5b506000908152600260205260409020546001600160a01b031690565b604051631b9b8aa760e01b815260ff7f00000000000000000000000000000000000000000000000000000000000000001660048201526000907f00000000000000000000000000000000000000000000000000000000000000006001600160a01b031690631b9b8aa790602401602060405180830381865afa1580156107e2573d6000803e3d6000fd5b505050506040513d601f19601f820116820180604052508101906108069190611cef565b905090565b60035460ff161561082f5760405163259e785160e11b815260040160405180910390fd5b61085d60ff7f0000000000000000000000000000000000000000000000000000000000000000166005611e02565b6004541061087e5760405163b984588b60e01b815260040160405180910390fd5b82517f30644e72e131a029b85045b68181585d2833e84879b9709143e1f593f00000011115806108d257507f30644e72e131a029b85045b68181585d2833e84879b9709143e1f593f0000001836020015110155b156108f0576040516354be831760e11b815260040160405180910390fd5b60048054600101815560405163125c7dfb60e11b81526001600160a01b037f000000000000000000000000000000000000000000000000000000000000000016916324b8fbf691610945913391879101611e3e565b600060405180830381600087803b15801561095f57600080fd5b505af1158015610973573d6000803e3d6000fd5b505060405163b36543a960e01b8152600092506001600160a01b037f000000000000000000000000000000000000000000000000000000000000000016915063b36543a9906109c89033908690600401611e3e565b602060405180830381865afa1580156109e5573d6000803e3d6000fd5b505050506040513d601f19601f82011682018060405250810190610a099190611cef565b905060004290506000610a35604051806060016040528088815260200185815260200184815250610cd3565b604051631ffc735d60e01b8152600481018290529091506000906001600160a01b037f00000000000000000000000000000000000000000000000000000000000000001690631ffc735d906024016020604051808303816000875af1158015610aa2573d6000803e3d6000fd5b505050506040513d601f19601f82011682018060405250810190610ac69190611cef565b602080890151895160408051858152938401899052830187905292935091907fd3c3cd829e4e37d5baaf10abace26b24e0046e20500c999380410f807edfcda09060600160405180910390a350505050505050565b60405163248f667760e01b81526000907377AD263Cd578045105FBFC88A477CAd808d39Cf69063248f667790610b55908590600401611e80565b602060405180830381865af4158015610b72573d6000803e3d6000fd5b505050506040513d601f19601f82011682018060405250810190610b969190611cef565b92915050565b610ba4611491565b600580546001600160a01b0319166001600160a01b0392909216919091179055565b60007f30644e72e131a029b85045b68181585d2833e84879b9709143e1f593f0000001600283604051602001610bfc9190611eb1565b60408051601f1981840301815290829052610c1691611ee7565b602060405180830381855afa158015610c33573d6000803e3d6000fd5b5050506040513d601f19601f82011682018060405250810190610c569190611cef565b610b969190611f03565b6000610c6a611597565b83815260208101839052610c7d81610c85565b949350505050565b6040516314d2f97b60e11b815260009073ce830DA8667097BB491A70da268b76a081211814906329a5f2f690610b55908590600401611f25565b610cc7611491565b610cd160006114eb565b565b6000610cdd6115b5565b8251518152825160209081015181830152830151816002602002015260408301516060820152610d0c81610b1b565b9392505050565b604051630926f44b60e31b81526000907338628490c3043E5D0bbB26d5a0a62fC77342e9d590634937a25890610b55908590600401611f4d565b6040805160808101825260008082526020820181905291810182905260608101919091526005546001600160a01b03163314610dcb5760405162461bcd60e51b815260206004820152601c60248201527f6f6e6c79206d616e616765722063616e2063726561746520706f6c6c000000006044820152606401610733565b6001805480820190915560408051808201825290880151600091908190610df3906005611f75565b81526020018960600151600560ff16610e0c9190611f75565b905290506000610e246000546001600160a01b031690565b905060007f00000000000000000000000000000000000000000000000000000000000000006001600160a01b031663b43c49698c858d8d307f0000000000000000000000000000000000000000000000000000000000000000896040518863ffffffff1660e01b8152600401610ea09796959493929190611f84565b6020604051808303816000875af1158015610ebf573d6000803e3d6000fd5b505050506040513d601f19601f82011682018060405250810190610ee39190612012565b604051637ec15b9d60e11b81526001600160a01b038a811660048301528981166024830152808316604483015284811660648301529192506000917f0000000000000000000000000000000000000000000000000000000000000000169063fd82b73a906084016020604051808303816000875af1158015610f69573d6000803e3d6000fd5b505050506040513d601f19601f82011682018060405250810190610f8d9190612012565b604051631326f4cf60e31b81526001600160a01b038b811660048301528a811660248301528481166044830152808316606483015285811660848301529192506000917f00000000000000000000000000000000000000000000000000000000000000001690639937a6789060a4016020604051808303816000875af115801561101b573d6000803e3d6000fd5b505050506040513d601f19601f8201168201806040525081019061103f9190612012565b9050600088156110f857604051631326f4cf60e31b81526001600160a01b038c811660048301528b811660248301528581166044830152848116606483015286811660848301527f00000000000000000000000000000000000000000000000000000000000000001690639937a6789060a4016020604051808303816000875af11580156110d1573d6000803e3d6000fd5b505050506040513d601f19601f820116820180604052508101906110f59190612012565b90505b60008781526002602090815260409182902080546001600160a01b0319166001600160a01b03888116918217909255835160808101855290815286821681840152858216818501529084166060820152908e01518e519251919a5091907f47a9e7a1f9d5e9de0c7f24bc11fbd940291f6898df1d49eff768e63c58a25a1290611184908b908d9061202f565b60405180910390a3505050505050509695505050505050565b6040516304b98e1d60e31b815260009073D5bFeBDce5c91413E41cc7B24C8402c59A344f7c906325cc70e890610b55908590600401612071565b60008181526002602052604090205481906001600160a01b0316331461121257604051635859049960e01b8152336004820152602401610733565b60405163c15da65b60e01b8152600481018490527f00000000000000000000000000000000000000000000000000000000000000006001600160a01b03169063c15da65b90602401600060405180830381600087803b15801561127457600080fd5b505af1158015611288573d6000803e3d6000fd5b505050507f00000000000000000000000000000000000000000000000000000000000000006001600160a01b031663b6a64acd6040518163ffffffff1660e01b8152600401602060405180830381865afa1580156112ea573d6000803e3d6000fd5b505050506040513d601f19601f8201168201806040525081019061130e9190612099565b15611321576003805460ff191660011790555b505050565b60008181526002602052604081205482906001600160a01b0316331461136157604051635859049960e01b8152336004820152602401610733565b6003805460ff191690556040516324a47aeb60e01b815260ff7f00000000000000000000000000000000000000000000000000000000000000001660048201527f00000000000000000000000000000000000000000000000000000000000000006001600160a01b0316906324a47aeb906024016020604051808303816000875af11580156113f4573d6000803e3d6000fd5b505050506040513d601f19601f82011682018060405250810190610d0c9190611cef565b611420611491565b6001600160a01b0381166114855760405162461bcd60e51b815260206004820152602660248201527f4f776e61626c653a206e6577206f776e657220697320746865207a65726f206160448201526564647265737360d01b6064820152608401610733565b61148e816114eb565b50565b6000546001600160a01b03163314610cd15760405162461bcd60e51b815260206004820181905260248201527f4f776e61626c653a2063616c6c6572206973206e6f7420746865206f776e65726044820152606401610733565b600080546001600160a01b038381166001600160a01b0319831681178455604051919092169283917f8be0079c531659141344cd1fd0a4f28419497f9722a3daafe3b4186f6b6457e09190a35050565b60405180604001604052806000815260200161155561155a565b905290565b604051806101400160405280600a906020820280368337509192915050565b6040518060a001604052806005906020820280368337509192915050565b60405180604001604052806002906020820280368337509192915050565b60405180608001604052806004906020820280368337509192915050565b634e487b7160e01b600052604160045260246000fd5b6040805190810167ffffffffffffffff8111828210171561160c5761160c6115d3565b60405290565b604051610140810167ffffffffffffffff8111828210171561160c5761160c6115d3565b604051601f8201601f1916810167ffffffffffffffff8111828210171561165f5761165f6115d3565b604052919050565b600082601f83011261167857600080fd5b6040516040810181811067ffffffffffffffff8211171561169b5761169b6115d3565b80604052508060408401858111156116b257600080fd5b845b818110156116cc5780358352602092830192016116b4565b509195945050505050565b600080606083850312156116ea57600080fd5b6116f48484611667565b946040939093013593505050565b835181526020808501516101c08301919081840160005b600a81101561173657825182529183019190830190600101611719565b5050855161016085015250506020909301516101808201526101a00152919050565b60006040828403121561176a57600080fd5b6117726115e9565b9050813581526020820135602082015292915050565b6000808284036101a081121561179d57600080fd5b610160808212156117ad57600080fd5b6117b56115e9565b915084358252602086603f8701126117cc57600080fd5b6117d4611612565b9186019180888411156117e657600080fd5b8288015b8481101561180157803583529183019183016117ea565b5080838601525050508193506118178682611758565b925050509250929050565b60006020828403121561183457600080fd5b5035919050565b600082601f83011261184c57600080fd5b813567ffffffffffffffff811115611866576118666115d3565b611879601f8201601f1916602001611636565b81815284602083860101111561188e57600080fd5b816020850160208301376000918101602001919091529392505050565b6000806000608084860312156118c057600080fd5b6118ca8585611758565b9250604084013567ffffffffffffffff808211156118e757600080fd5b6118f38783880161183b565b9350606086013591508082111561190957600080fd5b5061062d8682870161183b565b60006080828403121561192857600080fd5b82601f83011261193757600080fd5b6040516080810181811067ffffffffffffffff8211171561195a5761195a6115d3565b6040528060808401858111156116b257600080fd5b6001600160a01b038116811461148e57600080fd5b803561198f8161196f565b919050565b6000602082840312156119a657600080fd5b8135610d0c8161196f565b600060208083850312156119c457600080fd5b823567ffffffffffffffff808211156119dc57600080fd5b818501915085601f8301126119f057600080fd5b813581811115611a0257611a026115d3565b8060051b9150611a13848301611636565b8181529183018401918481019088841115611a2d57600080fd5b938501935b83851015611a4b57843582529385019390850190611a32565b98975050505050505050565b60008060408385031215611a6a57600080fd5b50508035926020909101359150565b600060408284031215611a8b57600080fd5b610d0c8383611667565b600060808284031215611aa757600080fd5b6040516060810181811067ffffffffffffffff82111715611aca57611aca6115d3565b604052611ad78484611758565b815260408301356020820152606083013560408201528091505092915050565b600060a08284031215611b0957600080fd5b82601f830112611b1857600080fd5b60405160a0810181811067ffffffffffffffff82111715611b3b57611b3b6115d3565b6040528060a08401858111156116b257600080fd5b803560ff8116811461198f57600080fd5b801515811461148e57600080fd5b803561198f81611b61565b600080600080600080868803610140811215611b9557600080fd5b873596506080601f1982011215611bab57600080fd5b506040516080810181811067ffffffffffffffff82111715611bcf57611bcf6115d3565b604052611bde60208901611b50565b8152611bec60408901611b50565b6020820152611bfd60608901611b50565b6040820152611c0e60808901611b50565b60608201529450611c228860a08901611758565b9350611c3060e08801611984565b9250611c3f6101008801611984565b9150611c4e6101208801611b6f565b90509295509295509295565b60808101610b96828480516001600160a01b03908116835260208083015182169084015260408083015182169084015260609182015116910152565b600060608284031215611ca857600080fd5b82601f830112611cb757600080fd5b6040516060810181811067ffffffffffffffff82111715611cda57611cda6115d3565b6040528060608401858111156116b257600080fd5b600060208284031215611d0157600080fd5b5051919050565b634e487b7160e01b600052601160045260246000fd5b600181815b80851115611d59578160001904821115611d3f57611d3f611d08565b80851615611d4c57918102915b93841c9390800290611d23565b509250929050565b600082611d7057506001610b96565b81611d7d57506000610b96565b8160018114611d935760028114611d9d57611db9565b6001915050610b96565b60ff841115611dae57611dae611d08565b50506001821b610b96565b5060208310610133831016604e8410600b8410161715611ddc575081810a610b96565b611de68383611d1e565b8060001904821115611dfa57611dfa611d08565b029392505050565b6000610d0c8383611d61565b60005b83811015611e29578181015183820152602001611e11565b83811115611e38576000848401525b50505050565b60018060a01b03831681526040602082015260008251806040840152611e6b816060850160208701611e0e565b601f01601f1916919091016060019392505050565b60808101818360005b6004811015611ea8578151835260209283019290910190600101611e89565b50505092915050565b815160009082906020808601845b83811015611edb57815185529382019390820190600101611ebf565b50929695505050505050565b60008251611ef9818460208701611e0e565b9190910192915050565b600082611f2057634e487b7160e01b600052601260045260246000fd5b500690565b60408101818360005b6002811015611ea8578151835260209283019290910190600101611f2e565b60a08101818360005b6005811015611ea8578151835260209283019290910190600101611f56565b6000610d0c60ff841683611d61565b8781526101808101611fa3602083018980518252602090810151910152565b60ff875116606083015260ff602088015116608083015260ff60408801511660a083015260ff60608801511660c0830152611feb60e083018780518252602090810151910152565b6001600160a01b038581166101208401528481166101408401528316610160830152611a4b565b60006020828403121561202457600080fd5b8151610d0c8161196f565b82815260a08101610d0c602083018480516001600160a01b03908116835260208083015182169084015260408083015182169084015260609182015116910152565b60608101818360005b6003811015611ea857815183526020928301929091019060010161207a565b6000602082840312156120ab57600080fd5b8151610d0c81611b6156fea2646970667358221220a4eb2db451140b28a531be4b65750d2066f399d88c0d352a5f9b261a0e4b7c2d64736f6c634300080a003360e06040523480156200001157600080fd5b506040516200233638038062002336833981016040819052620000349162000615565b808060056200004333620005c5565b81620000625760405163682e504160e11b815260040160405180910390fd5b60208211156200009357604051637ccdcc9760e11b8152600481018390526020602482015260440160405180910390fd5b80600214158015620000a6575080600514155b15620000c557604051636f7b6c0360e01b815260040160405180910390fd5b6000805460ff60a01b191660028314600160a01b02179055608082905260a0819052620000f3828262000744565b60c05250507f0ef71f46e11a513c599eed9dd03576c33439bcfb1cee155316f90541e41649ba6101725550507f0404a2ed0a1df2006441895d9a65ffffdd4968cb5f555fe72a6da7aaec83e1a0610173557f0b1c3d09dd575749a374a9dc1ee32af8c2312e24ad33a3e40fce8120b0f25fe3610174557f1f60ed72fc1915366d2e52cfc7ddc0ff854c7aee9abbc07d1ca88ada842354dc610175557f2ca1efc603fc121baf791319195ee3ab7fa075cee664d008f9ab2870f5028360610176557f2a0381fc4fb108733dfc58c355f2de753bcde61bd988eaa7d33fc967262be5ad610177557f12c6c7cce0332367373dafc95d75b98dd58980410434929dff09466a4ba262db610178557f2f212d3cc7e7334c4a10ced1be011b9cd70f73cca5522fc4137a51be8a17d18e610179557f0968ef20d515d8d743b2cf66603f8b86f3fdeee932fdc911774bb8699566e11c61017a557f2e3604981890fb676c3dac1e14c5c201573f99d1b9e67025109baf274b10e9dd61017b557f147d317fd4b7a1dd6cb961cfba444466b3c431ea638c8df74a89fc591d1a3a5161017c557f10ea2b72952b619afd5b9bc50561df8de0c6e1ba9b5ad66b179c39c420304a7561017d557f1c49f7b357d244d9144676ad23f79465ef5b88ef0f91762a3d35997688af9a5a61017e557f05ca0cfef8158efc5c4af44122e2765179b5463618d5c5ac6185c192332cade961017f557f0ae1595634e8a2e23620f33f9b2b5a23387a28f5833814646900110842f3a109610180557f08be8c2a6a099d9cdc96f9197af6ad99595d73419eb0694eaea432fa18baa203610181557f207f689ce35cf857ee6e68c42d31bb2191d1e84d7a295ccd63995ca7369d20eb610182557f2a6f6b7e4a2cd1a6466ed17debb0a27904e99adbd72be85566a87340f41efd05610183557f0f0725795350566920bbf56d3f22c4d38e832e638c9cb91811f83194e9dd74be610184557f02cd50632e5c5b00a9a93f434797725ec0f85f11ba1b6a844f0cd10c70df6392610185557f08868b85d2fa4c17eec0a7d8bca4671a00474bff80e801981437b77aa11d10b5610186557f294a84b7b46ea0a781877a2c0efd1ee56758d9ee55722721867efe53f4645286610187557f02cb8070979a018bb919f0d1a25d5ad3d5a376c4cf66f36d33434d221ca77e88610188557f05dfce8303f471d776762f2ddd37f05191b8bf5064d8d28e892cd4ec21e7aab4610189557f28a47617aa1e26bf42fd3b26e88aa717fd759bb92b22faaf5ad82090680b523161018a557f1de9253f5fa546603817abd83d1a13c8562f2bf6a0069a546fe546ca0c03c17061018b557f1cb9bd316e341b873dbbef94fd699c6e3a638451de2817db1620235db2b6c39e61018c557f0654785b2917d7c659a95738add3d8eb51cbbefc0f521c2640bc74b0fec5816261018d557f2eed74eacf5de60a758f815cb5e73015455c38408143fc25810d03e1ec9e352461018e557f16bea3363deb4753db67be8b19110b169ae39f33113a92773c41a8b025ca5a9361018f557f2b0dd3b7e0a7e234a4a1b48dd0e9083dc8bfc8cd7f72abdb93a1b8e5ef3e22ed610190557f0bc1ca795d5a059b1dc0c51f72c46f2288cb139ebf09f38ac3e8bca0485ed497610191557f249ca1610a7f80bbf422388c18ef9777fcdab26ee718e2b39e4011973a9023306101925562000759565b600080546001600160a01b038381166001600160a01b0319831681178455604051919092169283917f8be0079c531659141344cd1fd0a4f28419497f9722a3daafe3b4186f6b6457e09190a35050565b6000602082840312156200062857600080fd5b5051919050565b634e487b7160e01b600052601160045260246000fd5b600181815b80851115620006865781600019048211156200066a576200066a6200062f565b808516156200067857918102915b93841c93908002906200064a565b509250929050565b6000826200069f575060016200073e565b81620006ae575060006200073e565b8160018114620006c75760028114620006d257620006f2565b60019150506200073e565b60ff841115620006e657620006e66200062f565b50506001821b6200073e565b5060208310610133831016604e8410600b841016171562000717575081810a6200073e565b62000723838362000645565b80600019048211156200073a576200073a6200062f565b0290505b92915050565b60006200075283836200068e565b9392505050565b60805160a05160c051611b2f62000807600039600081816103ea01528181610a2301528181610abd01528181610c7c0152610d7c01526000818161032301528181610568015281816106e301528181610bb001528181610f250152818161109901526112fa015260008181610417015281816104780152818161053e01528181610bea01528181610cb201528181610cfc01528181610ec601528181610f7c01526112350152611b2f6000f3fe608060405234801561001057600080fd5b50600436106101585760003560e01c806381d6a24a116100c3578063c00bdbcc1161007c578063c00bdbcc146102b8578063c15da65b146102cb578063d9c55ce1146102de578063dda89a6e146102e6578063e93fb4d4146102f0578063f2fde38b1461030357600080fd5b806381d6a24a146102455780638da5cb5b146102615780639cfced971461027c578063a27154ba1461028f578063b6a64acd14610297578063bea140b3146102a557600080fd5b806358bfc3791161011557806358bfc379146101cc5780635bb93995146101df5780635bf1fa4d146101f257806362a361bb1461020557806369e7c58614610218578063715018a61461023b57600080fd5b80631b9b8aa71461015d5780631ffc735d1461018357806324a47aeb146101965780633bfa6fce146101a95780633dfb88b2146101b15780633e1a8cc1146101c4575b600080fd5b61017061016b36600461151c565b610316565b6040519081526020015b60405180910390f35b61017061019136600461151c565b610399565b6101706101a436600461151c565b6104c4565b6101706106d7565b6101706101bf36600461157c565b610721565b6101706107a2565b6101706101da3660046115fa565b6107d1565b6101706101ed3660046116a0565b61086b565b6101706102003660046116a0565b610890565b6101706102133660046116c2565b61092f565b61016e5461022b90610100900460ff1681565b604051901515815260200161017a565b610243610969565b005b610170546001546040805192835260208301919091520161017a565b6000546040516001600160a01b03909116815260200161017a565b61017061028a36600461171d565b61097d565b610170602081565b61016e5461022b9060ff1681565b6101706102b3366004611776565b6109b7565b6102436102c636600461151c565b6109f1565b6102436102d936600461151c565b610a6d565b610243610c72565b6101706101715481565b6101706102fe36600461151c565b610db9565b6102436103113660046117cf565b610df4565b61017154600090610347837f00000000000000000000000000000000000000000000000000000000000000006118f9565b101561037d5761017154604051627289df60e61b8152610374918491600401918252602082015260400190565b60405180910390fd5b61014d826021811061039157610391611905565b015492915050565b60006103a3610e6a565b50610171546103b3826000610ec4565b6103be81600161191b565b610171556103cf61014d6000611481565b600061016f5561016e805460ff191690556101715461040f907f000000000000000000000000000000000000000000000000000000000000000090611933565b6104bf5760027f00000000000000000000000000000000000000000000000000000000000000006021811061044657610446611905565b600402015460018054600090815261014c602052604081209290925580549161046e83611955565b90915550600290507f0000000000000000000000000000000000000000000000000000000000000000602181106104a7576104a7611905565b6004020160008091018190556104bf90608690611481565b919050565b60006104ce610e6a565b816104ec57604051630543d40760e11b815260040160405180910390fd5b61016e5460ff1661051057604051631e596e4360e11b815260040160405180910390fd5b602082111561053c57604051632cd31ae960e01b81526004810183905260206024820152604401610374565b7f00000000000000000000000000000000000000000000000000000000000000005b6101715461058c827f00000000000000000000000000000000000000000000000000000000000000006118f9565b10610596576105a8565b806105a081611955565b91505061055e565b808310156105d257604051627289df60e61b81526004810184905260248101829052604401610374565b8083141561060f5761016f5461014d84602181106105f2576105f2611905565b0155505061016e805461ff00191661010017905561016f54919050565b61016f549150805b838110156106a957600061062a82611005565b600054909150600160a01b900460ff161561066257610647611490565b8481526020810182905261065a8161092f565b945050610696565b61066a6114ae565b848152602081018290526040810182905260608101829052608081018290526106928161097d565b9450505b50806106a181611955565b915050610617565b508161014d84602181106106bf576106bf611905565b015561016e805461ff00191661010017905550919050565b60015b600154610707827f00000000000000000000000000000000000000000000000000000000000000006118f9565b1061070f5790565b8061071981611955565b9150506106da565b60405163248f667760e01b81526000907377AD263Cd578045105FBFC88A477CAd808d39Cf69063248f66779061075b908590600401611970565b602060405180830381865af4158015610778573d6000803e3d6000fd5b505050506040513d601f19601f8201168201806040525081019061079c91906119a1565b92915050565b61016e5460009060ff166107c957604051631e596e4360e11b815260040160405180910390fd5b5061016f5490565b60007f30644e72e131a029b85045b68181585d2833e84879b9709143e1f593f000000160028360405160200161080791906119ba565b60408051601f1981840301815290829052610821916119f0565b602060405180830381855afa15801561083e573d6000803e3d6000fd5b5050506040513d601f19601f8201168201806040525081019061086191906119a1565b61079c9190611933565b6000610875611490565b838152602081018390526108888161092f565b949350505050565b600061089a6114ae565b600284602181106108ad576108ad611905565b60040201548152600284602181106108c7576108c7611905565b60040201600101548160016020020152600284602181106108ea576108ea611905565b600402016002015481600260200201526002846021811061090d5761090d611905565b600402016003015481600360200201528281600460200201526108888161097d565b6040516314d2f97b60e11b815260009073ce830DA8667097BB491A70da268b76a081211814906329a5f2f69061075b908590600401611a2b565b610971610e6a565b61097b600061101b565b565b604051630926f44b60e31b81526000907338628490c3043E5D0bbB26d5a0a62fC77342e9d590634937a2589061075b908590600401611a53565b6040516304b98e1d60e31b815260009073D5bFeBDce5c91413E41cc7B24C8402c59A344f7c906325cc70e89061075b908590600401611a7b565b6109f9610e6a565b60018054600090815261014c6020526040812083905581549190610a1c83611955565b91905055507f00000000000000000000000000000000000000000000000000000000000000006101716000828254610a54919061191b565b9091555050600061016f555061016e805460ff19169055565b610a75610e6a565b61016e5460ff1615610a9a57604051630d36aec160e01b815260040160405180910390fd5b61017154610abb576040516316a0341160e11b815260040160405180910390fd5b7f000000000000000000000000000000000000000000000000000000000000000061017154610aea9190611933565b15610af757610af7610c72565b60015460011415610b2157610b0c6000610db9565b61016f5561016e805460ff1916600117905550565b6000610b2b6106d7565b610170549091506000905b600154811015610ba7578315801590610b4e57508382145b15610b595750505050565b610b70610b6861017054610db9565b60008561106b565b6101708054906000610b8183611955565b91905055508180610b9190611955565b9250508080610b9f90611955565b915050610b36565b506000610bd4837f00000000000000000000000000000000000000000000000000000000000000006118f9565b9050600154610170541415610c3e576000610c0e7f0000000000000000000000000000000000000000000000000000000000000000611005565b6001549091505b82811015610c3b57610c298260008761106b565b80610c3381611955565b915050610c15565b50505b60a78360218110610c5157610c51611905565b600402016000015461016f55505061016e805460ff19166001179055505b50565b610c7a610e6a565b7f000000000000000000000000000000000000000000000000000000000000000061017154610ca99190611933565b610cee57610cd67f0000000000000000000000000000000000000000000000000000000000000000611005565b600154600090815261014c6020526040902055610d5f565b610cf86000611233565b60027f000000000000000000000000000000000000000000000000000000000000000060218110610d2b57610d2b611905565b6004020154600154600090815261014c6020526040812091909155610d52906002906114cc565b610d5f61014d6000611481565b60006001546001610d70919061191b565b60018190559050610da17f000000000000000000000000000000000000000000000000000000000000000082611aa3565b6101715550600061016f5561016e805460ff19169055565b60008160015411610de05760405163042a2e7160e11b815260048101839052602401610374565b50600090815261014c602052604090205490565b610dfc610e6a565b6001600160a01b038116610e615760405162461bcd60e51b815260206004820152602660248201527f4f776e61626c653a206e6577206f776e657220697320746865207a65726f206160448201526564647265737360d01b6064820152608401610374565b610c6f8161101b565b6000546001600160a01b0316331461097b5760405162461bcd60e51b815260206004820181905260248201527f4f776e61626c653a2063616c6c6572206973206e6f7420746865206f776e65726044820152606401610374565b7f0000000000000000000000000000000000000000000000000000000000000000811115610f055760405163d1459f7960e01b815260040160405180910390fd5b600060868260218110610f1a57610f1a611905565b01549050610f4960017f0000000000000000000000000000000000000000000000000000000000000000611ac2565b8114610fce578260028360218110610f6357610f63611905565b600402018260048110610f7857610f78611905565b01557f00000000000000000000000000000000000000000000000000000000000000008214610fc95760868260218110610fb457610fb4611905565b018054906000610fc383611955565b91905055505b505050565b610fd8828461139f565b925060868260218110610fed57610fed611905565b600091015581610ffc81611955565b92505050610f05565b6000610172826021811061039157610391611905565b600080546001600160a01b038381166001600160a01b0319831681178455604051919092169283917f8be0079c531659141344cd1fd0a4f28419497f9722a3daafe3b4186f6b6457e09190a35050565b8082111561107857505050565b600061012b836021811061108e5761108e611905565b015490506110bd60017f0000000000000000000000000000000000000000000000000000000000000000611ac2565b811461111b578360a784602181106110d7576110d7611905565b6004020182600481106110ec576110ec611905565b015561012b836021811061110257611102611905565b01805490600061111183611955565b919050555061122d565b60008054600160a01b900460ff161561116857611136611490565b60a7856021811061114957611149611905565b60040201548152602081018690526111608161092f565b9150506111fd565b6111706114ae565b60005b838160ff1610156111d75760a7866021811061119157611191611905565b600402018160ff16600481106111a9576111a9611905565b0154828260ff16600581106111c0576111c0611905565b6020020152806111cf81611ad9565b915050611173565b50858184600581106111eb576111eb611905565b60200201526111f98161097d565b9150505b61012b846021811061121157611211611905565b600091015561122b8161122586600161191b565b8561106b565b505b50505050565b7f0000000000000000000000000000000000000000000000000000000000000000811015610c6f5760006086826021811061127057611270611905565b0154905080156113745760006112846114ae565b600061128f85611005565b905060005b848160ff1610156112f857600286602181106112b2576112b2611905565b600402018160ff16600481106112ca576112ca611905565b0154838260ff16600581106112e1576112e1611905565b6020020152806112f081611ad9565b915050611294565b7f00000000000000000000000000000000000000000000000000000000000000008160ff1610156113505781838260ff166005811061133957611339611905565b60200201528061134881611ad9565b9150506112f8565b6113598361097d565b935061136f8461136a88600161191b565b610ec4565b505050505b6086826021811061138757611387611905565b60009101558161139681611955565b92505050611233565b60006113a96114ae565b600284602181106113bc576113bc611905565b60040201548152600284602181106113d6576113d6611905565b60040201600101548160016020020152600284602181106113f9576113f9611905565b600402016002015481600260200201526002846021811061141c5761141c611905565b6004020160030154816003602002015282816004602002015261143e8161097d565b91506002846021811061145357611453611905565b60040201600061147a91905060008155600101600081556001016000815560010160009055565b5092915050565b50610c6f9060218101906114db565b60405180604001604052806002906020820280368337509192915050565b6040518060a001604052806005906020820280368337509192915050565b50610c6f9060848101906114f4565b5b808211156114f057600081556001016114dc565b5090565b808211156114f0576000808255600182018190556002820181905560038201556004016114f4565b60006020828403121561152e57600080fd5b5035919050565b634e487b7160e01b600052604160045260246000fd5b604051601f8201601f1916810167ffffffffffffffff8111828210171561157457611574611535565b604052919050565b60006080828403121561158e57600080fd5b82601f83011261159d57600080fd5b6040516080810181811067ffffffffffffffff821117156115c0576115c0611535565b6040528060808401858111156115d557600080fd5b845b818110156115ef5780358352602092830192016115d7565b509195945050505050565b6000602080838503121561160d57600080fd5b823567ffffffffffffffff8082111561162557600080fd5b818501915085601f83011261163957600080fd5b81358181111561164b5761164b611535565b8060051b915061165c84830161154b565b818152918301840191848101908884111561167657600080fd5b938501935b838510156116945784358252938501939085019061167b565b98975050505050505050565b600080604083850312156116b357600080fd5b50508035926020909101359150565b6000604082840312156116d457600080fd5b82601f8301126116e357600080fd5b6040516040810181811067ffffffffffffffff8211171561170657611706611535565b80604052508060408401858111156115d557600080fd5b600060a0828403121561172f57600080fd5b82601f83011261173e57600080fd5b60405160a0810181811067ffffffffffffffff8211171561176157611761611535565b6040528060a08401858111156115d557600080fd5b60006060828403121561178857600080fd5b82601f83011261179757600080fd5b6040516060810181811067ffffffffffffffff821117156117ba576117ba611535565b6040528060608401858111156115d557600080fd5b6000602082840312156117e157600080fd5b81356001600160a01b03811681146117f857600080fd5b9392505050565b634e487b7160e01b600052601160045260246000fd5b600181815b80851115611850578160001904821115611836576118366117ff565b8085161561184357918102915b93841c939080029061181a565b509250929050565b6000826118675750600161079c565b816118745750600061079c565b816001811461188a5760028114611894576118b0565b600191505061079c565b60ff8411156118a5576118a56117ff565b50506001821b61079c565b5060208310610133831016604e8410600b84101617156118d3575081810a61079c565b6118dd8383611815565b80600019048211156118f1576118f16117ff565b029392505050565b60006117f88383611858565b634e487b7160e01b600052603260045260246000fd5b6000821982111561192e5761192e6117ff565b500190565b60008261195057634e487b7160e01b600052601260045260246000fd5b500690565b6000600019821415611969576119696117ff565b5060010190565b60808101818360005b6004811015611998578151835260209283019290910190600101611979565b50505092915050565b6000602082840312156119b357600080fd5b5051919050565b815160009082906020808601845b838110156119e4578151855293820193908201906001016119c8565b50929695505050505050565b6000825160005b81811015611a1157602081860181015185830152016119f7565b81811115611a20576000828501525b509190910192915050565b60408101818360005b6002811015611998578151835260209283019290910190600101611a34565b60a08101818360005b6005811015611998578151835260209283019290910190600101611a5c565b60608101818360005b6003811015611998578151835260209283019290910190600101611a84565b6000816000190483118215151615611abd57611abd6117ff565b500290565b600082821015611ad457611ad46117ff565b500390565b600060ff821660ff811415611af057611af06117ff565b6001019291505056fea2646970667358221220e57dda3fcad5b2a8ffd034225eec302a68bb0f224d249e48b9871f3359377a2a64736f6c634300080a0033",
  "deployedBytecode": "0x608060405234801561001057600080fd5b50600436106102065760003560e01c8063603baff81161011a5780639cfced97116100ad578063bea140b31161007c578063bea140b314610520578063c02db7b814610533578063cfa1fa0314610550578063dd0982a314610563578063f2fde38b1461057657600080fd5b80639cfced971461049d578063a48e7750146104b0578063aab4a670146104d0578063ac2f0074146104f757600080fd5b8063683f3dc3116100e9578063683f3dc314610469578063715018a6146104715780637d0a81c8146104795780638da5cb5b1461048c57600080fd5b8063603baff8146103cf57806362a361bb146103f657806362b31f1e14610409578063652c76e41461043057600080fd5b80632b7865711161019d5780633dfb88b21161016c5780633dfb88b214610370578063481c6a751461038357806358aba00f1461039657806358bfc379146103a95780635bb93995146103bc57600080fd5b80632b7865711461030457806330e6f3781461030d5780633364120a14610334578063343393b51461034957600080fd5b8063122db153116101d9578063122db153146102bf578063167fd483146102d65780631a8cbcaa146102e95780632877e036146102fc57600080fd5b8063055575eb1461020b57806306912d3c1461024f578063079410db146102715780630dd5a88814610298575b600080fd5b6102327f000000000000000000000000000000000000000000000000000000000000000081565b6040516001600160a01b0390911681526020015b60405180910390f35b61026261025d3660046116d7565b610589565b60405161024693929190611702565b6102327f000000000000000000000000000000000000000000000000000000000000000081565b6102327f000000000000000000000000000000000000000000000000000000000000000081565b6102c860045481565b604051908152602001610246565b6102c86102e4366004611788565b610637565b6102326102f7366004611822565b610710565b6102c8610758565b6102c860015481565b6102327f000000000000000000000000000000000000000000000000000000000000000081565b6103476103423660046118ab565b61080b565b005b6102327f000000000000000000000000000000000000000000000000000000000000000081565b6102c861037e366004611916565b610b1b565b600554610232906001600160a01b031681565b6103476103a4366004611994565b610b9c565b6102c86103b73660046119b1565b610bc6565b6102c86103ca366004611a57565b610c60565b6102327f000000000000000000000000000000000000000000000000000000000000000081565b6102c8610404366004611a79565b610c85565b6102327f000000000000000000000000000000000000000000000000000000000000000081565b6104577f000000000000000000000000000000000000000000000000000000000000000081565b60405160ff9091168152602001610246565b610457600a81565b610347610cbf565b6102c8610487366004611a95565b610cd3565b6000546001600160a01b0316610232565b6102c86104ab366004611af7565b610d13565b6104c36104be366004611b7a565b610d4d565b6040516102469190611c5a565b6102327f000000000000000000000000000000000000000000000000000000000000000081565b610232610505366004611822565b6002602052600090815260409020546001600160a01b031681565b6102c861052e366004611c96565b61119d565b6003546105409060ff1681565b6040519015158152602001610246565b61034761055e366004611a57565b6111d7565b6102c8610571366004611822565b611326565b610347610584366004611994565b611418565b61059161153b565b604080518082019091526000808252602082015260006105af61155a565b85518152602080870151828201526040805180820182527f171e826ad4a870fd925e0bf0e87884e70e080879c2205ef10114f28a3b6f6dd781527f2bd407d897fbbca9f88adfd2d15252e69de8c1564eb4d3d27162e259172f1a1d8184015281518083019092528782529181018390529450925061062d8484610637565b9150509250925092565b6000610641611579565b602084810180515183528051820151918301919091528051604090810151908301528051606090810151908301525160809081015190820152610682611579565b6020858101805160a0908101518452815160c0015184840152815160e001516040808601919091528251610100015160608601529151610120015160808501528151908101909152865181526107079181016106dd85610d13565b81526020016106eb84610d13565b8152602001866000015181526020018660200151815250610d13565b95945050505050565b6000600154821061073c5760405163a86ecdd560e01b8152600481018390526024015b60405180910390fd5b506000908152600260205260409020546001600160a01b031690565b604051631b9b8aa760e01b815260ff7f00000000000000000000000000000000000000000000000000000000000000001660048201526000907f00000000000000000000000000000000000000000000000000000000000000006001600160a01b031690631b9b8aa790602401602060405180830381865afa1580156107e2573d6000803e3d6000fd5b505050506040513d601f19601f820116820180604052508101906108069190611cef565b905090565b60035460ff161561082f5760405163259e785160e11b815260040160405180910390fd5b61085d60ff7f0000000000000000000000000000000000000000000000000000000000000000166005611e02565b6004541061087e5760405163b984588b60e01b815260040160405180910390fd5b82517f30644e72e131a029b85045b68181585d2833e84879b9709143e1f593f00000011115806108d257507f30644e72e131a029b85045b68181585d2833e84879b9709143e1f593f0000001836020015110155b156108f0576040516354be831760e11b815260040160405180910390fd5b60048054600101815560405163125c7dfb60e11b81526001600160a01b037f000000000000000000000000000000000000000000000000000000000000000016916324b8fbf691610945913391879101611e3e565b600060405180830381600087803b15801561095f57600080fd5b505af1158015610973573d6000803e3d6000fd5b505060405163b36543a960e01b8152600092506001600160a01b037f000000000000000000000000000000000000000000000000000000000000000016915063b36543a9906109c89033908690600401611e3e565b602060405180830381865afa1580156109e5573d6000803e3d6000fd5b505050506040513d601f19601f82011682018060405250810190610a099190611cef565b905060004290506000610a35604051806060016040528088815260200185815260200184815250610cd3565b604051631ffc735d60e01b8152600481018290529091506000906001600160a01b037f00000000000000000000000000000000000000000000000000000000000000001690631ffc735d906024016020604051808303816000875af1158015610aa2573d6000803e3d6000fd5b505050506040513d601f19601f82011682018060405250810190610ac69190611cef565b602080890151895160408051858152938401899052830187905292935091907fd3c3cd829e4e37d5baaf10abace26b24e0046e20500c999380410f807edfcda09060600160405180910390a350505050505050565b60405163248f667760e01b815260009073__$ce9c2c925f157047e54fa833ec4e61409f$__9063248f667790610b55908590600401611e80565b602060405180830381865af4158015610b72573d6000803e3d6000fd5b505050506040513d601f19601f82011682018060405250810190610b969190611cef565b92915050565b610ba4611491565b600580546001600160a01b0319166001600160a01b0392909216919091179055565b60007f30644e72e131a029b85045b68181585d2833e84879b9709143e1f593f0000001600283604051602001610bfc9190611eb1565b60408051601f1981840301815290829052610c1691611ee7565b602060405180830381855afa158015610c33573d6000803e3d6000fd5b5050506040513d601f19601f82011682018060405250810190610c569190611cef565b610b969190611f03565b6000610c6a611597565b83815260208101839052610c7d81610c85565b949350505050565b6040516314d2f97b60e11b815260009073__$6574937f64fc1d7710ec0e28b7a36713bb$__906329a5f2f690610b55908590600401611f25565b610cc7611491565b610cd160006114eb565b565b6000610cdd6115b5565b8251518152825160209081015181830152830151816002602002015260408301516060820152610d0c81610b1b565b9392505050565b604051630926f44b60e31b815260009073__$20527677031d76601747626a9845039fe4$__90634937a25890610b55908590600401611f4d565b6040805160808101825260008082526020820181905291810182905260608101919091526005546001600160a01b03163314610dcb5760405162461bcd60e51b815260206004820152601c60248201527f6f6e6c79206d616e616765722063616e2063726561746520706f6c6c000000006044820152606401610733565b6001805480820190915560408051808201825290880151600091908190610df3906005611f75565b81526020018960600151600560ff16610e0c9190611f75565b905290506000610e246000546001600160a01b031690565b905060007f00000000000000000000000000000000000000000000000000000000000000006001600160a01b031663b43c49698c858d8d307f0000000000000000000000000000000000000000000000000000000000000000896040518863ffffffff1660e01b8152600401610ea09796959493929190611f84565b6020604051808303816000875af1158015610ebf573d6000803e3d6000fd5b505050506040513d601f19601f82011682018060405250810190610ee39190612012565b604051637ec15b9d60e11b81526001600160a01b038a811660048301528981166024830152808316604483015284811660648301529192506000917f0000000000000000000000000000000000000000000000000000000000000000169063fd82b73a906084016020604051808303816000875af1158015610f69573d6000803e3d6000fd5b505050506040513d601f19601f82011682018060405250810190610f8d9190612012565b604051631326f4cf60e31b81526001600160a01b038b811660048301528a811660248301528481166044830152808316606483015285811660848301529192506000917f00000000000000000000000000000000000000000000000000000000000000001690639937a6789060a4016020604051808303816000875af115801561101b573d6000803e3d6000fd5b505050506040513d601f19601f8201168201806040525081019061103f9190612012565b9050600088156110f857604051631326f4cf60e31b81526001600160a01b038c811660048301528b811660248301528581166044830152848116606483015286811660848301527f00000000000000000000000000000000000000000000000000000000000000001690639937a6789060a4016020604051808303816000875af11580156110d1573d6000803e3d6000fd5b505050506040513d601f19601f820116820180604052508101906110f59190612012565b90505b60008781526002602090815260409182902080546001600160a01b0319166001600160a01b03888116918217909255835160808101855290815286821681840152858216818501529084166060820152908e01518e519251919a5091907f47a9e7a1f9d5e9de0c7f24bc11fbd940291f6898df1d49eff768e63c58a25a1290611184908b908d9061202f565b60405180910390a3505050505050509695505050505050565b6040516304b98e1d60e31b815260009073__$dc01a9744591ab014bc46a3b7671cdaefb$__906325cc70e890610b55908590600401612071565b60008181526002602052604090205481906001600160a01b0316331461121257604051635859049960e01b8152336004820152602401610733565b60405163c15da65b60e01b8152600481018490527f00000000000000000000000000000000000000000000000000000000000000006001600160a01b03169063c15da65b90602401600060405180830381600087803b15801561127457600080fd5b505af1158015611288573d6000803e3d6000fd5b505050507f00000000000000000000000000000000000000000000000000000000000000006001600160a01b031663b6a64acd6040518163ffffffff1660e01b8152600401602060405180830381865afa1580156112ea573d6000803e3d6000fd5b505050506040513d601f19601f8201168201806040525081019061130e9190612099565b15611321576003805460ff191660011790555b505050565b60008181526002602052604081205482906001600160a01b0316331461136157604051635859049960e01b8152336004820152602401610733565b6003805460ff191690556040516324a47aeb60e01b815260ff7f00000000000000000000000000000000000000000000000000000000000000001660048201527f00000000000000000000000000000000000000000000000000000000000000006001600160a01b0316906324a47aeb906024016020604051808303816000875af11580156113f4573d6000803e3d6000fd5b505050506040513d601f19601f82011682018060405250810190610d0c9190611cef565b611420611491565b6001600160a01b0381166114855760405162461bcd60e51b815260206004820152602660248201527f4f776e61626c653a206e6577206f776e657220697320746865207a65726f206160448201526564647265737360d01b6064820152608401610733565b61148e816114eb565b50565b6000546001600160a01b03163314610cd15760405162461bcd60e51b815260206004820181905260248201527f4f776e61626c653a2063616c6c6572206973206e6f7420746865206f776e65726044820152606401610733565b600080546001600160a01b038381166001600160a01b0319831681178455604051919092169283917f8be0079c531659141344cd1fd0a4f28419497f9722a3daafe3b4186f6b6457e09190a35050565b60405180604001604052806000815260200161155561155a565b905290565b604051806101400160405280600a906020820280368337509192915050565b6040518060a001604052806005906020820280368337509192915050565b60405180604001604052806002906020820280368337509192915050565b60405180608001604052806004906020820280368337509192915050565b634e487b7160e01b600052604160045260246000fd5b6040805190810167ffffffffffffffff8111828210171561160c5761160c6115d3565b60405290565b604051610140810167ffffffffffffffff8111828210171561160c5761160c6115d3565b604051601f8201601f1916810167ffffffffffffffff8111828210171561165f5761165f6115d3565b604052919050565b600082601f83011261167857600080fd5b6040516040810181811067ffffffffffffffff8211171561169b5761169b6115d3565b80604052508060408401858111156116b257600080fd5b845b818110156116cc5780358352602092830192016116b4565b509195945050505050565b600080606083850312156116ea57600080fd5b6116f48484611667565b946040939093013593505050565b835181526020808501516101c08301919081840160005b600a81101561173657825182529183019190830190600101611719565b5050855161016085015250506020909301516101808201526101a00152919050565b60006040828403121561176a57600080fd5b6117726115e9565b9050813581526020820135602082015292915050565b6000808284036101a081121561179d57600080fd5b610160808212156117ad57600080fd5b6117b56115e9565b915084358252602086603f8701126117cc57600080fd5b6117d4611612565b9186019180888411156117e657600080fd5b8288015b8481101561180157803583529183019183016117ea565b5080838601525050508193506118178682611758565b925050509250929050565b60006020828403121561183457600080fd5b5035919050565b600082601f83011261184c57600080fd5b813567ffffffffffffffff811115611866576118666115d3565b611879601f8201601f1916602001611636565b81815284602083860101111561188e57600080fd5b816020850160208301376000918101602001919091529392505050565b6000806000608084860312156118c057600080fd5b6118ca8585611758565b9250604084013567ffffffffffffffff808211156118e757600080fd5b6118f38783880161183b565b9350606086013591508082111561190957600080fd5b5061062d8682870161183b565b60006080828403121561192857600080fd5b82601f83011261193757600080fd5b6040516080810181811067ffffffffffffffff8211171561195a5761195a6115d3565b6040528060808401858111156116b257600080fd5b6001600160a01b038116811461148e57600080fd5b803561198f8161196f565b919050565b6000602082840312156119a657600080fd5b8135610d0c8161196f565b600060208083850312156119c457600080fd5b823567ffffffffffffffff808211156119dc57600080fd5b818501915085601f8301126119f057600080fd5b813581811115611a0257611a026115d3565b8060051b9150611a13848301611636565b8181529183018401918481019088841115611a2d57600080fd5b938501935b83851015611a4b57843582529385019390850190611a32565b98975050505050505050565b60008060408385031215611a6a57600080fd5b50508035926020909101359150565b600060408284031215611a8b57600080fd5b610d0c8383611667565b600060808284031215611aa757600080fd5b6040516060810181811067ffffffffffffffff82111715611aca57611aca6115d3565b604052611ad78484611758565b815260408301356020820152606083013560408201528091505092915050565b600060a08284031215611b0957600080fd5b82601f830112611b1857600080fd5b60405160a0810181811067ffffffffffffffff82111715611b3b57611b3b6115d3565b6040528060a08401858111156116b257600080fd5b803560ff8116811461198f57600080fd5b801515811461148e57600080fd5b803561198f81611b61565b600080600080600080868803610140811215611b9557600080fd5b873596506080601f1982011215611bab57600080fd5b506040516080810181811067ffffffffffffffff82111715611bcf57611bcf6115d3565b604052611bde60208901611b50565b8152611bec60408901611b50565b6020820152611bfd60608901611b50565b6040820152611c0e60808901611b50565b60608201529450611c228860a08901611758565b9350611c3060e08801611984565b9250611c3f6101008801611984565b9150611c4e6101208801611b6f565b90509295509295509295565b60808101610b96828480516001600160a01b03908116835260208083015182169084015260408083015182169084015260609182015116910152565b600060608284031215611ca857600080fd5b82601f830112611cb757600080fd5b6040516060810181811067ffffffffffffffff82111715611cda57611cda6115d3565b6040528060608401858111156116b257600080fd5b600060208284031215611d0157600080fd5b5051919050565b634e487b7160e01b600052601160045260246000fd5b600181815b80851115611d59578160001904821115611d3f57611d3f611d08565b80851615611d4c57918102915b93841c9390800290611d23565b509250929050565b600082611d7057506001610b96565b81611d7d57506000610b96565b8160018114611d935760028114611d9d57611db9565b6001915050610b96565b60ff841115611dae57611dae611d08565b50506001821b610b96565b5060208310610133831016604e8410600b8410161715611ddc575081810a610b96565b611de68383611d1e565b8060001904821115611dfa57611dfa611d08565b029392505050565b6000610d0c8383611d61565b60005b83811015611e29578181015183820152602001611e11565b83811115611e38576000848401525b50505050565b60018060a01b03831681526040602082015260008251806040840152611e6b816060850160208701611e0e565b601f01601f1916919091016060019392505050565b60808101818360005b6004811015611ea8578151835260209283019290910190600101611e89565b50505092915050565b815160009082906020808601845b83811015611edb57815185529382019390820190600101611ebf565b50929695505050505050565b60008251611ef9818460208701611e0e565b9190910192915050565b600082611f2057634e487b7160e01b600052601260045260246000fd5b500690565b60408101818360005b6002811015611ea8578151835260209283019290910190600101611f2e565b60a08101818360005b6005811015611ea8578151835260209283019290910190600101611f56565b6000610d0c60ff841683611d61565b8781526101808101611fa3602083018980518252602090810151910152565b60ff875116606083015260ff602088015116608083015260ff60408801511660a083015260ff60608801511660c0830152611feb60e083018780518252602090810151910152565b6001600160a01b038581166101208401528481166101408401528316610160830152611a4b565b60006020828403121561202457600080fd5b8151610d0c8161196f565b82815260a08101610d0c602083018480516001600160a01b03908116835260208083015182169084015260408083015182169084015260609182015116910152565b60608101818360005b6003811015611ea857815183526020928301929091019060010161207a565b6000602082840312156120ab57600080fd5b8151610d0c81611b6156fea2646970667358221220a4eb2db451140b28a531be4b65750d2066f399d88c0d352a5f9b261a0e4b7c2d64736f6c634300080a0033",
  "libraries": {
    "PoseidonT3": "0xce830DA8667097BB491A70da268b76a081211814",
    "PoseidonT4": "0xD5bFeBDce5c91413E41cc7B24C8402c59A344f7c",
    "PoseidonT5": "0x77AD263Cd578045105FBFC88A477CAd808d39Cf6",
    "PoseidonT6": "0x38628490c3043E5D0bbB26d5a0a62fC77342e9d5"
  },
  "devdoc": {
    "kind": "dev",
    "methods": {
      "constructor": {
        "params": {
          "_initialVoiceCreditProxy": "The InitialVoiceCreditProxy contract",
          "_messageProcessorFactory": "The MessageProcessorFactory contract",
          "_pollFactory": "The PollFactory contract",
          "_signUpGatekeeper": "The SignUpGatekeeper contract",
          "_stateTreeDepth": "The depth of the state tree",
          "_subsidyFactory": "The SubsidyFactory contract",
          "_tallyFactory": "The TallyFactory contract",
          "_topupCredit": "The TopupCredit contract"
        }
      },
      "deployPoll(uint256,(uint8,uint8,uint8,uint8),(uint256,uint256),address,address,bool)": {
        "params": {
          "_coordinatorPubKey": "The coordinator's public key",
          "_duration": "How long should the Poll last for",
          "_treeDepths": "The depth of the Merkle trees",
          "_verifier": "The Verifier Contract",
          "_vkRegistry": "The VkRegistry Contract",
          "useSubsidy": "If true, the Poll will use the Subsidy contract"
        },
        "returns": {
          "pollAddr": "a new Poll contract address"
        }
      },
      "getPoll(uint256)": {
        "params": {
          "_pollId": "The identifier of the Poll to retrieve"
        },
        "returns": {
          "poll": "The Poll contract object"
        }
      },
      "getStateAqRoot()": {
        "returns": {
          "root": "The Merkle root"
        }
      },
      "hash2(uint256[2])": {
        "params": {
          "array": "An array of two uint256 elements."
        },
        "returns": {
          "result": "The Poseidon hash of the two elements."
        }
      },
      "hash3(uint256[3])": {
        "params": {
          "array": "An array of three uint256 elements."
        },
        "returns": {
          "result": "The Poseidon hash of the three elements."
        }
      },
      "hash4(uint256[4])": {
        "params": {
          "array": "An array of four uint256 elements."
        },
        "returns": {
          "result": "The Poseidon hash of the four elements."
        }
      },
      "hash5(uint256[5])": {
        "params": {
          "array": "An array of five uint256 elements."
        },
        "returns": {
          "result": "The Poseidon hash of the five elements."
        }
      },
      "hashLeftRight(uint256,uint256)": {
        "params": {
          "left": "the first element to hash.",
          "right": "the second element to hash."
        },
        "returns": {
          "result": "The Poseidon hash of the two elements."
        }
      },
      "hashMessageAndEncPubKey((uint256,uint256[10]),(uint256,uint256))": {
        "params": {
          "_encPubKey": "the encryption public key to be hashed",
          "_message": "the message to be hashed"
        },
        "returns": {
          "msgHash": "The hash of the message and the encryption public key"
        }
      },
      "hashStateLeaf(((uint256,uint256),uint256,uint256))": {
        "params": {
          "_stateLeaf": "the state leaf to be hashed"
        },
        "returns": {
          "ciphertext": "The hash of the state leaf"
        }
      },
      "mergeStateAq(uint256)": {
        "params": {
          "_pollId": "The active Poll ID"
        },
        "returns": {
          "root": "The calculated Merkle root"
        }
      },
      "mergeStateAqSubRoots(uint256,uint256)": {
        "params": {
          "_numSrQueueOps": "Number of operations",
          "_pollId": "The ID of the active Poll"
        }
      },
      "owner()": {
        "details": "Returns the address of the current owner."
      },
      "padAndHashMessage(uint256[2],uint256)": {
        "params": {
          "dataToPad": "the data to be padded",
          "msgType": "the type of the message"
        },
        "returns": {
          "message": "The padded message",
          "msgHash": "The hash of the padded message and encryption key",
          "padKey": "The padding public key"
        }
      },
      "renounceOwnership()": {
        "details": "Leaves the contract without owner. It will not be possible to call `onlyOwner` functions anymore. Can only be called by the current owner. NOTE: Renouncing ownership will leave the contract without an owner, thereby removing any functionality that is only available to the owner."
      },
      "sha256Hash(uint256[])": {
        "params": {
          "array": "The array of uint256 elements."
        },
        "returns": {
          "result": "The SHA256 hash of the array."
        }
      },
      "signUp((uint256,uint256),bytes,bytes)": {
        "params": {
          "_initialVoiceCreditProxyData": "Data to pass to the     InitialVoiceCreditProxy, which allows it to determine how many voice     credits this user should have.",
          "_pubKey": "The user's desired public key.",
          "_signUpGatekeeperData": "Data to pass to the sign-up gatekeeper's     register() function. For instance, the POAPGatekeeper or     SignUpTokenGatekeeper requires this value to be the ABI-encoded     token ID."
        }
      },
      "transferOwnership(address)": {
        "details": "Transfers ownership of the contract to a new account (`newOwner`). Can only be called by the current owner."
      }
    },
    "title": "MACI - Minimum Anti-Collusion Infrastructure Version 1",
    "version": 1
  },
  "userdoc": {
    "errors": {
      "CallerMustBePoll(address)": [
        {
          "notice": "custom errors"
        }
      ],
      "InvalidMessage()": [
        {
          "notice": "custom errors"
        }
      ]
    },
    "kind": "user",
    "methods": {
      "MESSAGE_DATA_LENGTH()": {
        "notice": "the length of a MACI message"
      },
      "constructor": {
        "notice": "Create a new instance of the MACI contract."
      },
      "deployPoll(uint256,(uint8,uint8,uint8,uint8),(uint256,uint256),address,address,bool)": {
        "notice": "Deploy a new Poll contract."
      },
      "getPoll(uint256)": {
        "notice": "Get the Poll details"
      },
      "getStateAqRoot()": {
        "notice": "Return the main root of the StateAq contract"
      },
      "hash2(uint256[2])": {
        "notice": "Computes the Poseidon hash of two uint256 elements."
      },
      "hash3(uint256[3])": {
        "notice": "Computes the Poseidon hash of three uint256 elements."
      },
      "hash4(uint256[4])": {
        "notice": "Computes the Poseidon hash of four uint256 elements."
      },
      "hash5(uint256[5])": {
        "notice": "Computes the Poseidon hash of five uint256 elements."
      },
      "hashLeftRight(uint256,uint256)": {
        "notice": "Computes the Poseidon hash of two uint256 elements."
      },
      "hashMessageAndEncPubKey((uint256,uint256[10]),(uint256,uint256))": {
        "notice": "An utility function used to hash a MACI message and an encryption public key"
      },
      "hashStateLeaf(((uint256,uint256),uint256,uint256))": {
        "notice": "An utility function used to hash a state leaf"
      },
      "initialVoiceCreditProxy()": {
        "notice": "The contract which provides the values of the initial voice credit balance per user"
      },
      "mergeStateAq(uint256)": {
        "notice": "Allow Poll contracts to merge the state root"
      },
      "mergeStateAqSubRoots(uint256,uint256)": {
        "notice": "Allow Poll contracts to merge the state subroots"
      },
      "messageProcessorFactory()": {
        "notice": "Factory contract that deploy a MessageProcessor contract"
      },
      "nextPollId()": {
        "notice": "Each poll has an incrementing ID"
      },
      "numSignUps()": {
        "notice": "The number of signups"
      },
      "padAndHashMessage(uint256[2],uint256)": {
        "notice": "An utility function used to pad and hash a MACI message"
      },
      "pollFactory()": {
        "notice": "Factory contract that deploy a Poll contract"
      },
      "polls(uint256)": {
        "notice": "A mapping of poll IDs to Poll contracts."
      },
      "sha256Hash(uint256[])": {
        "notice": "Computes the SHA256 hash of an array of uint256 elements."
      },
      "signUp((uint256,uint256),bytes,bytes)": {
        "notice": "Allows any eligible user sign up. The sign-up gatekeeper should prevent double sign-ups or ineligible users from doing so.  This function will only succeed if the sign-up deadline has not passed. It also enqueues a fresh state leaf into the state AccQueue."
      },
      "signUpGatekeeper()": {
        "notice": "Address of the SignUpGatekeeper, a contract which determines whether a user may sign up to vote"
      },
      "stateAq()": {
        "notice": "The state AccQueue. Represents a mapping between each user's public key and their voice credit balance."
      },
      "stateTreeDepth()": {
        "notice": "The state tree depth is fixed. As such it should be as large as feasible so that there can be as many users as possible.  i.e. 5 ** 10 = 9765625 this should also match the parameter of the circom circuits."
      },
      "subsidyFactory()": {
        "notice": "Factory contract that deploy a Subsidy contract"
      },
      "subtreesMerged()": {
        "notice": "Whether the subtrees have been merged (can merge root before new signup)"
      },
      "tallyFactory()": {
        "notice": "Factory contract that deploy a Tally contract"
      },
      "topupCredit()": {
        "notice": "ERC20 contract that hold topup credits"
      }
    },
    "notice": "A contract which allows users to sign up, and deploy new polls",
    "version": 1
  },
  "storageLayout": {
    "storage": [
      {
        "astId": 7,
        "contract": "contracts/MACI.sol:MACI",
        "label": "_owner",
        "offset": 0,
        "slot": "0",
        "type": "t_address"
      },
      {
        "astId": 879,
        "contract": "contracts/MACI.sol:MACI",
        "label": "nextPollId",
        "offset": 0,
        "slot": "1",
        "type": "t_uint256"
      },
      {
        "astId": 884,
        "contract": "contracts/MACI.sol:MACI",
        "label": "polls",
        "offset": 0,
        "slot": "2",
        "type": "t_mapping(t_uint256,t_address)"
      },
      {
        "astId": 887,
        "contract": "contracts/MACI.sol:MACI",
        "label": "subtreesMerged",
        "offset": 0,
        "slot": "3",
        "type": "t_bool"
      },
      {
        "astId": 890,
        "contract": "contracts/MACI.sol:MACI",
        "label": "numSignUps",
        "offset": 0,
        "slot": "4",
        "type": "t_uint256"
      },
      {
        "astId": 924,
        "contract": "contracts/MACI.sol:MACI",
        "label": "manager",
        "offset": 0,
        "slot": "5",
        "type": "t_address"
      }
    ],
    "types": {
      "t_address": {
        "encoding": "inplace",
        "label": "address",
        "numberOfBytes": "20"
      },
      "t_bool": {
        "encoding": "inplace",
        "label": "bool",
        "numberOfBytes": "1"
      },
      "t_mapping(t_uint256,t_address)": {
        "encoding": "mapping",
        "key": "t_uint256",
        "label": "mapping(uint256 => address)",
        "numberOfBytes": "32",
        "value": "t_address"
      },
      "t_uint256": {
        "encoding": "inplace",
        "label": "uint256",
        "numberOfBytes": "32"
      }
    }
  }
}