{
  "address": "0x64f5219563e28EeBAAd91Ca8D31fa3b36621FD4f",
  "abi": [
    {
      "inputs": [
        {
          "internalType": "address",
          "name": "_verifier",
          "type": "address"
        },
        {
          "internalType": "address",
          "name": "_vkRegistry",
          "type": "address"
        },
        {
          "internalType": "address",
          "name": "_poll",
          "type": "address"
        },
        {
          "internalType": "address",
          "name": "_messageProcessor",
          "type": "address"
        },
        {
          "internalType": "address",
          "name": "_owner",
          "type": "address"
        }
      ],
      "name": "deploy",
      "outputs": [
        {
          "internalType": "address",
          "name": "subsidyAddr",
          "type": "address"
        }
      ],
      "stateMutability": "nonpayable",
      "type": "function"
    }
  ],
  "transactionHash": "0xead5cb5fd3f945e0a4cfb32048f940be88a559d83bed7ef2c60c053c69425e5a",
  "args": [],
  "numDeployments": 1,
  "solcInputHash": "29b47fc0ef6ba77ce0c1319ed31c0826",
  "bytecode": "0x608060405234801561001057600080fd5b50611cf1806100206000396000f3fe608060405234801561001057600080fd5b506004361061002b5760003560e01c80639937a67814610030575b600080fd5b61004361003e36600461014a565b61005f565b6040516001600160a01b03909116815260200160405180910390f35b6000808686868660405161007290610121565b6001600160a01b039485168152928416602084015290831660408301529091166060820152608001604051809103906000f0801580156100b6573d6000803e3d6000fd5b5060405163f2fde38b60e01b81526001600160a01b0385811660048301529192509082169063f2fde38b90602401600060405180830381600087803b1580156100fe57600080fd5b505af1158015610112573d6000803e3d6000fd5b50929998505050505050505050565b611b0c806101b083390190565b80356001600160a01b038116811461014557600080fd5b919050565b600080600080600060a0868803121561016257600080fd5b61016b8661012e565b94506101796020870161012e565b93506101876040870161012e565b92506101956060870161012e565b91506101a36080870161012e565b9050929550929590935056fe61010060405260405162001b0c38038062001b0c8339810160408190526200002791620000c2565b620000323362000055565b6001600160a01b0393841660805291831660a052821660c0521660e0526200011f565b600080546001600160a01b038381166001600160a01b0319831681178455604051919092169283917f8be0079c531659141344cd1fd0a4f28419497f9722a3daafe3b4186f6b6457e09190a35050565b80516001600160a01b0381168114620000bd57600080fd5b919050565b60008060008060808587031215620000d957600080fd5b620000e485620000a5565b9350620000f460208601620000a5565b92506200010460408601620000a5565b91506200011460608601620000a5565b905092959194509250565b60805160a05160c05160e05161197462000198600039600081816103140152818161034001526103e601526000818161029b01528181610761015281816107910152818161082b0152818161099a0152610a240152600081816101680152610aac0152600081816101ba0152610bd901526119746000f3fe608060405234801561001057600080fd5b50600436106101425760003560e01c80636ea37eb3116100b8578063a11752791161007c578063a117527914610296578063bea140b3146102bd578063c2dfd23a146102d0578063d13181b8146102f3578063f2fde38b146102fc578063f40027081461030f57600080fd5b80636ea37eb31461024e578063715018a6146102575780638da5cb5b1461025f57806398b62604146102705780639cfced971461028357600080fd5b80633dfb88b21161010a5780633dfb88b2146101dc57806358bfc379146101ef5780635bb93995146102025780635cd3520e1461021557806362a361bb14610228578063644f7f3a1461023b57600080fd5b80630b46d0961461014757806313fb89321461016357806316425eeb146101a25780632285ee79146101ac5780632b7ac3f3146101b5575b600080fd5b61015060025481565b6040519081526020015b60405180910390f35b61018a7f000000000000000000000000000000000000000000000000000000000000000081565b6040516001600160a01b03909116815260200161015a565b6101aa610336565b005b61015060045481565b61018a7f000000000000000000000000000000000000000000000000000000000000000081565b6101506101ea366004610f2e565b61046c565b6101506101fd366004610fd0565b6104ed565b610150610210366004611066565b610587565b610150610223366004611066565b6105ac565b610150610236366004611088565b610675565b6101506102493660046110e8565b6106af565b61015060015481565b6101aa610742565b6000546001600160a01b031661018a565b6101aa61027e366004611113565b610754565b610150610291366004611141565b61091f565b61018a7f000000000000000000000000000000000000000000000000000000000000000081565b6101506102cb36600461119a565b610959565b6102e36102de3660046111f3565b610993565b604051901515815260200161015a565b61015060035481565b6101aa61030a36600461123f565b610c60565b61018a7f000000000000000000000000000000000000000000000000000000000000000081565b61033e610cde565b7f00000000000000000000000000000000000000000000000000000000000000006001600160a01b0316638763d0c46040518163ffffffff1660e01b8152600401602060405180830381865afa15801561039c573d6000803e3d6000fd5b505050506040513d601f19601f820116820180604052508101906103c09190611263565b6103dd5760405163f13e1b8560e01b815260040160405180910390fd5b60035461046a577f00000000000000000000000000000000000000000000000000000000000000006001600160a01b031663d13181b86040518163ffffffff1660e01b8152600401602060405180830381865afa158015610442573d6000803e3d6000fd5b505050506040513d601f19601f820116820180604052508101906104669190611285565b6003555b565b60405163248f667760e01b81526000907377AD263Cd578045105FBFC88A477CAd808d39Cf69063248f6677906104a690859060040161129e565b602060405180830381865af41580156104c3573d6000803e3d6000fd5b505050506040513d601f19601f820116820180604052508101906104e79190611285565b92915050565b60007f30644e72e131a029b85045b68181585d2833e84879b9709143e1f593f000000160028360405160200161052391906112cf565b60408051601f198184030181529082905261053d91611305565b602060405180830381855afa15801561055a573d6000803e3d6000fd5b5050506040513d601f19601f8201168201806040525081019061057d9190611285565b6104e79190611340565b6000610591610e7d565b838152602081018390526105a481610675565b949350505050565b6000806105b8846106af565b60408051600480825260a08201909252919250600091906020820160808036833701905050905081816000815181106105f3576105f3611362565b6020026020010181815250506003548160018151811061061557610615611362565b6020026020010181815250506004548160028151811061063757610637611362565b602002602001018181525050838160038151811061065757610657611362565b60200260200101818152505061066c816104ed565b95945050505050565b6040516314d2f97b60e11b815260009073ce830DA8667097BB491A70da268b76a081211814906329a5f2f6906104a6908590600401611378565b6000600160321b82106106d557604051631805864f60e21b815260040160405180910390fd5b600160321b600154106106fb57604051633ebad87360e01b815260040160405180910390fd5b600160321b600254106107215760405163b9ce386360e01b815260040160405180910390fd5b6002546001546107389060321b606485901b6113b6565b6104e791906113b6565b61074a610cde565b61046a6000610d38565b61075c610cde565b6107857f0000000000000000000000000000000000000000000000000000000000000000610d88565b61078d610336565b60007f00000000000000000000000000000000000000000000000000000000000000006001600160a01b031663ac98e5df6040518163ffffffff1660e01b8152600401608060405180830381865afa1580156107ed573d6000803e3d6000fd5b505050506040513d601f19601f8201168201806040525081019061081191906113e4565b50505090506000816005610825919061151c565b905060007f00000000000000000000000000000000000000000000000000000000000000006001600160a01b0316634f367f0f6040518163ffffffff1660e01b81526004016040805180830381865afa158015610886573d6000803e3d6000fd5b505050506040513d601f19601f820116820180604052508101906108aa919061152b565b50905080826001546108bc919061154f565b11156108db5760405163bfce989160e01b815260040160405180910390fd5b60006108e8858388610993565b90508061090857604051631b3c3b6160e01b815260040160405180910390fd5b60048690556109178383610e25565b505050505050565b604051630926f44b60e31b81526000907338628490c3043E5D0bbB26d5a0a62fC77342e9d590634937a258906104a690859060040161156e565b6040516304b98e1d60e31b815260009073D5bFeBDce5c91413E41cc7B24C8402c59A344f7c906325cc70e8906104a6908590600401611596565b60008060007f00000000000000000000000000000000000000000000000000000000000000006001600160a01b031663ac98e5df6040518163ffffffff1660e01b8152600401608060405180830381865afa1580156109f6573d6000803e3d6000fd5b505050506040513d601f19601f82011682018060405250810190610a1a91906113e4565b93505050915060007f00000000000000000000000000000000000000000000000000000000000000006001600160a01b031663bc14ee2b6040518163ffffffff1660e01b8152600401606060405180830381865afa158015610a80573d6000803e3d6000fd5b505050506040513d601f19601f82011682018060405250810190610aa491906115be565b5050905060007f00000000000000000000000000000000000000000000000000000000000000006001600160a01b031663f1a510b0836001600160a01b031663652c76e46040518163ffffffff1660e01b8152600401602060405180830381865afa158015610b17573d6000803e3d6000fd5b505050506040513d601f19601f82011682018060405250810190610b3b919061160b565b6040516001600160e01b031960e084901b16815260ff918216600482015281881660248201529086166044820152606401600060405180830381865afa158015610b89573d6000803e3d6000fd5b505050506040513d6000823e601f3d908101601f19168201604052610bb191908101906116db565b90506000610bbf88886105ac565b6040516308adcb2560e21b81529091506001600160a01b037f000000000000000000000000000000000000000000000000000000000000000016906322b72c9490610c12908c9086908690600401611839565b602060405180830381865afa158015610c2f573d6000803e3d6000fd5b505050506040513d601f19601f82011682018060405250810190610c539190611263565b9998505050505050505050565b610c68610cde565b6001600160a01b038116610cd25760405162461bcd60e51b815260206004820152602660248201527f4f776e61626c653a206e6577206f776e657220697320746865207a65726f206160448201526564647265737360d01b60648201526084015b60405180910390fd5b610cdb81610d38565b50565b6000546001600160a01b0316331461046a5760405162461bcd60e51b815260206004820181905260248201527f4f776e61626c653a2063616c6c6572206973206e6f7420746865206f776e65726044820152606401610cc9565b600080546001600160a01b038381166001600160a01b0319831681178455604051919092169283917f8be0079c531659141344cd1fd0a4f28419497f9722a3daafe3b4186f6b6457e09190a35050565b600080826001600160a01b0316634909229f6040518163ffffffff1660e01b81526004016040805180830381865afa158015610dc8573d6000803e3d6000fd5b505050506040513d601f19601f82011682018060405250810190610dec919061152b565b90925090506000610dfd834261190c565b9050818111610e1f57604051635c3017c560e11b815260040160405180910390fd5b50505050565b808283600254610e35919061154f565b610e3f91906113b6565b1015610e5e5760028054906000610e5583611923565b91905055505050565b60018054906000610e6e83611923565b90915550506001546002555050565b60405180604001604052806002906020820280368337509192915050565b634e487b7160e01b600052604160045260246000fd5b6040805190810167ffffffffffffffff81118282101715610ed457610ed4610e9b565b60405290565b60405160a0810167ffffffffffffffff81118282101715610ed457610ed4610e9b565b604051601f8201601f1916810167ffffffffffffffff81118282101715610f2657610f26610e9b565b604052919050565b600060808284031215610f4057600080fd5b82601f830112610f4f57600080fd5b6040516080810181811067ffffffffffffffff82111715610f7257610f72610e9b565b604052806080840185811115610f8757600080fd5b845b81811015610fa1578035835260209283019201610f89565b509195945050505050565b600067ffffffffffffffff821115610fc657610fc6610e9b565b5060051b60200190565b60006020808385031215610fe357600080fd5b823567ffffffffffffffff811115610ffa57600080fd5b8301601f8101851361100b57600080fd5b803561101e61101982610fac565b610efd565b81815260059190911b8201830190838101908783111561103d57600080fd5b928401925b8284101561105b57833582529284019290840190611042565b979650505050505050565b6000806040838503121561107957600080fd5b50508035926020909101359150565b60006040828403121561109a57600080fd5b82601f8301126110a957600080fd5b6110b1610eb1565b8060408401858111156110c357600080fd5b845b818110156110dd5780358452602093840193016110c5565b509095945050505050565b6000602082840312156110fa57600080fd5b5035919050565b8061010081018310156104e757600080fd5b600080610120838503121561112757600080fd5b823591506111388460208501611101565b90509250929050565b600060a0828403121561115357600080fd5b82601f83011261116257600080fd5b60405160a0810181811067ffffffffffffffff8211171561118557611185610e9b565b6040528060a0840185811115610f8757600080fd5b6000606082840312156111ac57600080fd5b82601f8301126111bb57600080fd5b6040516060810181811067ffffffffffffffff821117156111de576111de610e9b565b604052806060840185811115610f8757600080fd5b6000806000610140848603121561120957600080fd5b6112138585611101565b956101008501359550610120909401359392505050565b6001600160a01b0381168114610cdb57600080fd5b60006020828403121561125157600080fd5b813561125c8161122a565b9392505050565b60006020828403121561127557600080fd5b8151801515811461125c57600080fd5b60006020828403121561129757600080fd5b5051919050565b60808101818360005b60048110156112c65781518352602092830192909101906001016112a7565b50505092915050565b815160009082906020808601845b838110156112f9578151855293820193908201906001016112dd565b50929695505050505050565b6000825160005b81811015611326576020818601810151858301520161130c565b81811115611335576000828501525b509190910192915050565b60008261135d57634e487b7160e01b600052601260045260246000fd5b500690565b634e487b7160e01b600052603260045260246000fd5b60408101818360005b60028110156112c6578151835260209283019290910190600101611381565b634e487b7160e01b600052601160045260246000fd5b600082198211156113c9576113c96113a0565b500190565b805160ff811681146113df57600080fd5b919050565b600080600080608085870312156113fa57600080fd5b611403856113ce565b9350611411602086016113ce565b925061141f604086016113ce565b915061142d606086016113ce565b905092959194509250565b600181815b80851115611473578160001904821115611459576114596113a0565b8085161561146657918102915b93841c939080029061143d565b509250929050565b60008261148a575060016104e7565b81611497575060006104e7565b81600181146114ad57600281146114b7576114d3565b60019150506104e7565b60ff8411156114c8576114c86113a0565b50506001821b6104e7565b5060208310610133831016604e8410600b84101617156114f6575081810a6104e7565b6115008383611438565b8060001904821115611514576115146113a0565b029392505050565b600061125c60ff84168361147b565b6000806040838503121561153e57600080fd5b505080516020909101519092909150565b6000816000190483118215151615611569576115696113a0565b500290565b60a08101818360005b60058110156112c6578151835260209283019290910190600101611577565b60608101818360005b60038110156112c657815183526020928301929091019060010161159f565b6000806000606084860312156115d357600080fd5b83516115de8161122a565b60208501519093506115ef8161122a565b60408501519092506116008161122a565b809150509250925092565b60006020828403121561161d57600080fd5b61125c826113ce565b60006040828403121561163857600080fd5b611640610eb1565b9050815181526020820151602082015292915050565b600082601f83011261166757600080fd5b61166f610eb1565b80604084018581111561168157600080fd5b845b818110156110dd578051845260209384019301611683565b6000608082840312156116ad57600080fd5b6116b5610eb1565b90506116c18383611656565b81526116d08360408401611656565b602082015292915050565b600060208083850312156116ee57600080fd5b825167ffffffffffffffff8082111561170657600080fd5b908401906101e0828703121561171b57600080fd5b611723610eda565b61172d8784611626565b8152604061173d8882860161169b565b8583015261174e8860c0860161169b565b8183015261176088610140860161169b565b60608301526101c08401518381111561177857600080fd5b80850194505087601f85011261178d57600080fd5b8351925061179d61101984610fac565b83815260069390931b840185019285810190898511156117bc57600080fd5b948601945b848610156117e2576117d38a87611626565b825294820194908601906117c1565b60808401525090979650505050505050565b8060005b6002811015610e1f5781518452602093840193909101906001016117f8565b6118228282516117f4565b602081015161183460408401826117f4565b505050565b60006101406101008087853783018190528451805182850190815260209182015191015261032083016020915081860151611878610180860182611817565b5060408087015161188d610200870182611817565b5060608701516118a1610280870182611817565b5060808701516101e06103008701528051928390528301916000906103408701905b808310156118f4576118e082865180518252602090810151910152565b9385019360019290920191908301906118c3565b50809550505050505082610120830152949350505050565b60008282101561191e5761191e6113a0565b500390565b6000600019821415611937576119376113a0565b506001019056fea2646970667358221220c18c48185e7129654f33f96690918be8e89561a11a260bc38b2192980c43190064736f6c634300080a0033a2646970667358221220e5ed990902e0b0b836f7de6697b3a46fc32b0ca7eaeebf57e9a8212d6f2595d564736f6c634300080a0033",
  "deployedBytecode": "0x608060405234801561001057600080fd5b506004361061002b5760003560e01c80639937a67814610030575b600080fd5b61004361003e36600461014a565b61005f565b6040516001600160a01b03909116815260200160405180910390f35b6000808686868660405161007290610121565b6001600160a01b039485168152928416602084015290831660408301529091166060820152608001604051809103906000f0801580156100b6573d6000803e3d6000fd5b5060405163f2fde38b60e01b81526001600160a01b0385811660048301529192509082169063f2fde38b90602401600060405180830381600087803b1580156100fe57600080fd5b505af1158015610112573d6000803e3d6000fd5b50929998505050505050505050565b611b0c806101b083390190565b80356001600160a01b038116811461014557600080fd5b919050565b600080600080600060a0868803121561016257600080fd5b61016b8661012e565b94506101796020870161012e565b93506101876040870161012e565b92506101956060870161012e565b91506101a36080870161012e565b9050929550929590935056fe61010060405260405162001b0c38038062001b0c8339810160408190526200002791620000c2565b620000323362000055565b6001600160a01b0393841660805291831660a052821660c0521660e0526200011f565b600080546001600160a01b038381166001600160a01b0319831681178455604051919092169283917f8be0079c531659141344cd1fd0a4f28419497f9722a3daafe3b4186f6b6457e09190a35050565b80516001600160a01b0381168114620000bd57600080fd5b919050565b60008060008060808587031215620000d957600080fd5b620000e485620000a5565b9350620000f460208601620000a5565b92506200010460408601620000a5565b91506200011460608601620000a5565b905092959194509250565b60805160a05160c05160e05161197462000198600039600081816103140152818161034001526103e601526000818161029b01528181610761015281816107910152818161082b0152818161099a0152610a240152600081816101680152610aac0152600081816101ba0152610bd901526119746000f3fe608060405234801561001057600080fd5b50600436106101425760003560e01c80636ea37eb3116100b8578063a11752791161007c578063a117527914610296578063bea140b3146102bd578063c2dfd23a146102d0578063d13181b8146102f3578063f2fde38b146102fc578063f40027081461030f57600080fd5b80636ea37eb31461024e578063715018a6146102575780638da5cb5b1461025f57806398b62604146102705780639cfced971461028357600080fd5b80633dfb88b21161010a5780633dfb88b2146101dc57806358bfc379146101ef5780635bb93995146102025780635cd3520e1461021557806362a361bb14610228578063644f7f3a1461023b57600080fd5b80630b46d0961461014757806313fb89321461016357806316425eeb146101a25780632285ee79146101ac5780632b7ac3f3146101b5575b600080fd5b61015060025481565b6040519081526020015b60405180910390f35b61018a7f000000000000000000000000000000000000000000000000000000000000000081565b6040516001600160a01b03909116815260200161015a565b6101aa610336565b005b61015060045481565b61018a7f000000000000000000000000000000000000000000000000000000000000000081565b6101506101ea366004610f2e565b61046c565b6101506101fd366004610fd0565b6104ed565b610150610210366004611066565b610587565b610150610223366004611066565b6105ac565b610150610236366004611088565b610675565b6101506102493660046110e8565b6106af565b61015060015481565b6101aa610742565b6000546001600160a01b031661018a565b6101aa61027e366004611113565b610754565b610150610291366004611141565b61091f565b61018a7f000000000000000000000000000000000000000000000000000000000000000081565b6101506102cb36600461119a565b610959565b6102e36102de3660046111f3565b610993565b604051901515815260200161015a565b61015060035481565b6101aa61030a36600461123f565b610c60565b61018a7f000000000000000000000000000000000000000000000000000000000000000081565b61033e610cde565b7f00000000000000000000000000000000000000000000000000000000000000006001600160a01b0316638763d0c46040518163ffffffff1660e01b8152600401602060405180830381865afa15801561039c573d6000803e3d6000fd5b505050506040513d601f19601f820116820180604052508101906103c09190611263565b6103dd5760405163f13e1b8560e01b815260040160405180910390fd5b60035461046a577f00000000000000000000000000000000000000000000000000000000000000006001600160a01b031663d13181b86040518163ffffffff1660e01b8152600401602060405180830381865afa158015610442573d6000803e3d6000fd5b505050506040513d601f19601f820116820180604052508101906104669190611285565b6003555b565b60405163248f667760e01b815260009073__$ce9c2c925f157047e54fa833ec4e61409f$__9063248f6677906104a690859060040161129e565b602060405180830381865af41580156104c3573d6000803e3d6000fd5b505050506040513d601f19601f820116820180604052508101906104e79190611285565b92915050565b60007f30644e72e131a029b85045b68181585d2833e84879b9709143e1f593f000000160028360405160200161052391906112cf565b60408051601f198184030181529082905261053d91611305565b602060405180830381855afa15801561055a573d6000803e3d6000fd5b5050506040513d601f19601f8201168201806040525081019061057d9190611285565b6104e79190611340565b6000610591610e7d565b838152602081018390526105a481610675565b949350505050565b6000806105b8846106af565b60408051600480825260a08201909252919250600091906020820160808036833701905050905081816000815181106105f3576105f3611362565b6020026020010181815250506003548160018151811061061557610615611362565b6020026020010181815250506004548160028151811061063757610637611362565b602002602001018181525050838160038151811061065757610657611362565b60200260200101818152505061066c816104ed565b95945050505050565b6040516314d2f97b60e11b815260009073__$6574937f64fc1d7710ec0e28b7a36713bb$__906329a5f2f6906104a6908590600401611378565b6000600160321b82106106d557604051631805864f60e21b815260040160405180910390fd5b600160321b600154106106fb57604051633ebad87360e01b815260040160405180910390fd5b600160321b600254106107215760405163b9ce386360e01b815260040160405180910390fd5b6002546001546107389060321b606485901b6113b6565b6104e791906113b6565b61074a610cde565b61046a6000610d38565b61075c610cde565b6107857f0000000000000000000000000000000000000000000000000000000000000000610d88565b61078d610336565b60007f00000000000000000000000000000000000000000000000000000000000000006001600160a01b031663ac98e5df6040518163ffffffff1660e01b8152600401608060405180830381865afa1580156107ed573d6000803e3d6000fd5b505050506040513d601f19601f8201168201806040525081019061081191906113e4565b50505090506000816005610825919061151c565b905060007f00000000000000000000000000000000000000000000000000000000000000006001600160a01b0316634f367f0f6040518163ffffffff1660e01b81526004016040805180830381865afa158015610886573d6000803e3d6000fd5b505050506040513d601f19601f820116820180604052508101906108aa919061152b565b50905080826001546108bc919061154f565b11156108db5760405163bfce989160e01b815260040160405180910390fd5b60006108e8858388610993565b90508061090857604051631b3c3b6160e01b815260040160405180910390fd5b60048690556109178383610e25565b505050505050565b604051630926f44b60e31b815260009073__$20527677031d76601747626a9845039fe4$__90634937a258906104a690859060040161156e565b6040516304b98e1d60e31b815260009073__$dc01a9744591ab014bc46a3b7671cdaefb$__906325cc70e8906104a6908590600401611596565b60008060007f00000000000000000000000000000000000000000000000000000000000000006001600160a01b031663ac98e5df6040518163ffffffff1660e01b8152600401608060405180830381865afa1580156109f6573d6000803e3d6000fd5b505050506040513d601f19601f82011682018060405250810190610a1a91906113e4565b93505050915060007f00000000000000000000000000000000000000000000000000000000000000006001600160a01b031663bc14ee2b6040518163ffffffff1660e01b8152600401606060405180830381865afa158015610a80573d6000803e3d6000fd5b505050506040513d601f19601f82011682018060405250810190610aa491906115be565b5050905060007f00000000000000000000000000000000000000000000000000000000000000006001600160a01b031663f1a510b0836001600160a01b031663652c76e46040518163ffffffff1660e01b8152600401602060405180830381865afa158015610b17573d6000803e3d6000fd5b505050506040513d601f19601f82011682018060405250810190610b3b919061160b565b6040516001600160e01b031960e084901b16815260ff918216600482015281881660248201529086166044820152606401600060405180830381865afa158015610b89573d6000803e3d6000fd5b505050506040513d6000823e601f3d908101601f19168201604052610bb191908101906116db565b90506000610bbf88886105ac565b6040516308adcb2560e21b81529091506001600160a01b037f000000000000000000000000000000000000000000000000000000000000000016906322b72c9490610c12908c9086908690600401611839565b602060405180830381865afa158015610c2f573d6000803e3d6000fd5b505050506040513d601f19601f82011682018060405250810190610c539190611263565b9998505050505050505050565b610c68610cde565b6001600160a01b038116610cd25760405162461bcd60e51b815260206004820152602660248201527f4f776e61626c653a206e6577206f776e657220697320746865207a65726f206160448201526564647265737360d01b60648201526084015b60405180910390fd5b610cdb81610d38565b50565b6000546001600160a01b0316331461046a5760405162461bcd60e51b815260206004820181905260248201527f4f776e61626c653a2063616c6c6572206973206e6f7420746865206f776e65726044820152606401610cc9565b600080546001600160a01b038381166001600160a01b0319831681178455604051919092169283917f8be0079c531659141344cd1fd0a4f28419497f9722a3daafe3b4186f6b6457e09190a35050565b600080826001600160a01b0316634909229f6040518163ffffffff1660e01b81526004016040805180830381865afa158015610dc8573d6000803e3d6000fd5b505050506040513d601f19601f82011682018060405250810190610dec919061152b565b90925090506000610dfd834261190c565b9050818111610e1f57604051635c3017c560e11b815260040160405180910390fd5b50505050565b808283600254610e35919061154f565b610e3f91906113b6565b1015610e5e5760028054906000610e5583611923565b91905055505050565b60018054906000610e6e83611923565b90915550506001546002555050565b60405180604001604052806002906020820280368337509192915050565b634e487b7160e01b600052604160045260246000fd5b6040805190810167ffffffffffffffff81118282101715610ed457610ed4610e9b565b60405290565b60405160a0810167ffffffffffffffff81118282101715610ed457610ed4610e9b565b604051601f8201601f1916810167ffffffffffffffff81118282101715610f2657610f26610e9b565b604052919050565b600060808284031215610f4057600080fd5b82601f830112610f4f57600080fd5b6040516080810181811067ffffffffffffffff82111715610f7257610f72610e9b565b604052806080840185811115610f8757600080fd5b845b81811015610fa1578035835260209283019201610f89565b509195945050505050565b600067ffffffffffffffff821115610fc657610fc6610e9b565b5060051b60200190565b60006020808385031215610fe357600080fd5b823567ffffffffffffffff811115610ffa57600080fd5b8301601f8101851361100b57600080fd5b803561101e61101982610fac565b610efd565b81815260059190911b8201830190838101908783111561103d57600080fd5b928401925b8284101561105b57833582529284019290840190611042565b979650505050505050565b6000806040838503121561107957600080fd5b50508035926020909101359150565b60006040828403121561109a57600080fd5b82601f8301126110a957600080fd5b6110b1610eb1565b8060408401858111156110c357600080fd5b845b818110156110dd5780358452602093840193016110c5565b509095945050505050565b6000602082840312156110fa57600080fd5b5035919050565b8061010081018310156104e757600080fd5b600080610120838503121561112757600080fd5b823591506111388460208501611101565b90509250929050565b600060a0828403121561115357600080fd5b82601f83011261116257600080fd5b60405160a0810181811067ffffffffffffffff8211171561118557611185610e9b565b6040528060a0840185811115610f8757600080fd5b6000606082840312156111ac57600080fd5b82601f8301126111bb57600080fd5b6040516060810181811067ffffffffffffffff821117156111de576111de610e9b565b604052806060840185811115610f8757600080fd5b6000806000610140848603121561120957600080fd5b6112138585611101565b956101008501359550610120909401359392505050565b6001600160a01b0381168114610cdb57600080fd5b60006020828403121561125157600080fd5b813561125c8161122a565b9392505050565b60006020828403121561127557600080fd5b8151801515811461125c57600080fd5b60006020828403121561129757600080fd5b5051919050565b60808101818360005b60048110156112c65781518352602092830192909101906001016112a7565b50505092915050565b815160009082906020808601845b838110156112f9578151855293820193908201906001016112dd565b50929695505050505050565b6000825160005b81811015611326576020818601810151858301520161130c565b81811115611335576000828501525b509190910192915050565b60008261135d57634e487b7160e01b600052601260045260246000fd5b500690565b634e487b7160e01b600052603260045260246000fd5b60408101818360005b60028110156112c6578151835260209283019290910190600101611381565b634e487b7160e01b600052601160045260246000fd5b600082198211156113c9576113c96113a0565b500190565b805160ff811681146113df57600080fd5b919050565b600080600080608085870312156113fa57600080fd5b611403856113ce565b9350611411602086016113ce565b925061141f604086016113ce565b915061142d606086016113ce565b905092959194509250565b600181815b80851115611473578160001904821115611459576114596113a0565b8085161561146657918102915b93841c939080029061143d565b509250929050565b60008261148a575060016104e7565b81611497575060006104e7565b81600181146114ad57600281146114b7576114d3565b60019150506104e7565b60ff8411156114c8576114c86113a0565b50506001821b6104e7565b5060208310610133831016604e8410600b84101617156114f6575081810a6104e7565b6115008383611438565b8060001904821115611514576115146113a0565b029392505050565b600061125c60ff84168361147b565b6000806040838503121561153e57600080fd5b505080516020909101519092909150565b6000816000190483118215151615611569576115696113a0565b500290565b60a08101818360005b60058110156112c6578151835260209283019290910190600101611577565b60608101818360005b60038110156112c657815183526020928301929091019060010161159f565b6000806000606084860312156115d357600080fd5b83516115de8161122a565b60208501519093506115ef8161122a565b60408501519092506116008161122a565b809150509250925092565b60006020828403121561161d57600080fd5b61125c826113ce565b60006040828403121561163857600080fd5b611640610eb1565b9050815181526020820151602082015292915050565b600082601f83011261166757600080fd5b61166f610eb1565b80604084018581111561168157600080fd5b845b818110156110dd578051845260209384019301611683565b6000608082840312156116ad57600080fd5b6116b5610eb1565b90506116c18383611656565b81526116d08360408401611656565b602082015292915050565b600060208083850312156116ee57600080fd5b825167ffffffffffffffff8082111561170657600080fd5b908401906101e0828703121561171b57600080fd5b611723610eda565b61172d8784611626565b8152604061173d8882860161169b565b8583015261174e8860c0860161169b565b8183015261176088610140860161169b565b60608301526101c08401518381111561177857600080fd5b80850194505087601f85011261178d57600080fd5b8351925061179d61101984610fac565b83815260069390931b840185019285810190898511156117bc57600080fd5b948601945b848610156117e2576117d38a87611626565b825294820194908601906117c1565b60808401525090979650505050505050565b8060005b6002811015610e1f5781518452602093840193909101906001016117f8565b6118228282516117f4565b602081015161183460408401826117f4565b505050565b60006101406101008087853783018190528451805182850190815260209182015191015261032083016020915081860151611878610180860182611817565b5060408087015161188d610200870182611817565b5060608701516118a1610280870182611817565b5060808701516101e06103008701528051928390528301916000906103408701905b808310156118f4576118e082865180518252602090810151910152565b9385019360019290920191908301906118c3565b50809550505050505082610120830152949350505050565b60008282101561191e5761191e6113a0565b500390565b6000600019821415611937576119376113a0565b506001019056fea2646970667358221220c18c48185e7129654f33f96690918be8e89561a11a260bc38b2192980c43190064736f6c634300080a0033a2646970667358221220e5ed990902e0b0b836f7de6697b3a46fc32b0ca7eaeebf57e9a8212d6f2595d564736f6c634300080a0033",
  "libraries": {
    "PoseidonT3": "0xce830DA8667097BB491A70da268b76a081211814",
    "PoseidonT4": "0xD5bFeBDce5c91413E41cc7B24C8402c59A344f7c",
    "PoseidonT5": "0x77AD263Cd578045105FBFC88A477CAd808d39Cf6",
    "PoseidonT6": "0x38628490c3043E5D0bbB26d5a0a62fC77342e9d5"
  },
  "devdoc": {
    "kind": "dev",
    "methods": {
      "deploy(address,address,address,address,address)": {
        "params": {
          "_messageProcessor": "MessageProcessor contract",
          "_owner": "Owner of the contract",
          "_poll": "Poll contract",
          "_verifier": "Verifier contract",
          "_vkRegistry": "VkRegistry contract"
        },
        "returns": {
          "subsidyAddr": "The deployed contract"
        }
      }
    },
    "title": "SubsidyFactory",
    "version": 1
  },
  "userdoc": {
    "kind": "user",
    "methods": {
      "deploy(address,address,address,address,address)": {
        "notice": "Deploy a new Tally or Subsidy contract and return the address."
      }
    },
    "notice": "A factory contract which deploys Subsidy contracts.",
    "version": 1
  },
  "storageLayout": {
    "storage": [],
    "types": null
  }
}